{
  "contractName": "ComptrollerV3Storage",
  "abi": [
    {
      "constant": true,
      "inputs": [],
      "name": "_borrowGuardianPaused",
      "outputs": [
        {
          "internalType": "bool",
          "name": "",
          "type": "bool"
        }
      ],
      "payable": false,
      "stateMutability": "view",
      "type": "function"
    },
    {
      "constant": true,
      "inputs": [],
      "name": "_mintGuardianPaused",
      "outputs": [
        {
          "internalType": "bool",
          "name": "",
          "type": "bool"
        }
      ],
      "payable": false,
      "stateMutability": "view",
      "type": "function"
    },
    {
      "constant": true,
      "inputs": [
        {
          "internalType": "address",
          "name": "",
          "type": "address"
        },
        {
          "internalType": "uint256",
          "name": "",
          "type": "uint256"
        }
      ],
      "name": "accountAssets",
      "outputs": [
        {
          "internalType": "contract CToken",
          "name": "",
          "type": "address"
        }
      ],
      "payable": false,
      "stateMutability": "view",
      "type": "function"
    },
    {
      "constant": true,
      "inputs": [],
      "name": "admin",
      "outputs": [
        {
          "internalType": "address",
          "name": "",
          "type": "address"
        }
      ],
      "payable": false,
      "stateMutability": "view",
      "type": "function"
    },
    {
      "constant": true,
      "inputs": [
        {
          "internalType": "uint256",
          "name": "",
          "type": "uint256"
        }
      ],
      "name": "allMarkets",
      "outputs": [
        {
          "internalType": "contract CToken",
          "name": "",
          "type": "address"
        }
      ],
      "payable": false,
      "stateMutability": "view",
      "type": "function"
    },
    {
      "constant": true,
      "inputs": [
        {
          "internalType": "address",
          "name": "",
          "type": "address"
        }
      ],
      "name": "borrowGuardianPaused",
      "outputs": [
        {
          "internalType": "bool",
          "name": "",
          "type": "bool"
        }
      ],
      "payable": false,
      "stateMutability": "view",
      "type": "function"
    },
    {
      "constant": true,
      "inputs": [],
      "name": "closeFactorMantissa",
      "outputs": [
        {
          "internalType": "uint256",
          "name": "",
          "type": "uint256"
        }
      ],
      "payable": false,
      "stateMutability": "view",
      "type": "function"
    },
    {
      "constant": true,
      "inputs": [
        {
          "internalType": "address",
          "name": "",
          "type": "address"
        }
      ],
      "name": "compAccrued",
      "outputs": [
        {
          "internalType": "uint256",
          "name": "",
          "type": "uint256"
        }
      ],
      "payable": false,
      "stateMutability": "view",
      "type": "function"
    },
    {
      "constant": true,
      "inputs": [
        {
          "internalType": "address",
          "name": "",
          "type": "address"
        }
      ],
      "name": "compBorrowState",
      "outputs": [
        {
          "internalType": "uint224",
          "name": "index",
          "type": "uint224"
        },
        {
          "internalType": "uint32",
          "name": "block",
          "type": "uint32"
        }
      ],
      "payable": false,
      "stateMutability": "view",
      "type": "function"
    },
    {
      "constant": true,
      "inputs": [
        {
          "internalType": "address",
          "name": "",
          "type": "address"
        },
        {
          "internalType": "address",
          "name": "",
          "type": "address"
        }
      ],
      "name": "compBorrowerIndex",
      "outputs": [
        {
          "internalType": "uint256",
          "name": "",
          "type": "uint256"
        }
      ],
      "payable": false,
      "stateMutability": "view",
      "type": "function"
    },
    {
      "constant": true,
      "inputs": [],
      "name": "compRate",
      "outputs": [
        {
          "internalType": "uint256",
          "name": "",
          "type": "uint256"
        }
      ],
      "payable": false,
      "stateMutability": "view",
      "type": "function"
    },
    {
      "constant": true,
      "inputs": [
        {
          "internalType": "address",
          "name": "",
          "type": "address"
        }
      ],
      "name": "compSpeeds",
      "outputs": [
        {
          "internalType": "uint256",
          "name": "",
          "type": "uint256"
        }
      ],
      "payable": false,
      "stateMutability": "view",
      "type": "function"
    },
    {
      "constant": true,
      "inputs": [
        {
          "internalType": "address",
          "name": "",
          "type": "address"
        },
        {
          "internalType": "address",
          "name": "",
          "type": "address"
        }
      ],
      "name": "compSupplierIndex",
      "outputs": [
        {
          "internalType": "uint256",
          "name": "",
          "type": "uint256"
        }
      ],
      "payable": false,
      "stateMutability": "view",
      "type": "function"
    },
    {
      "constant": true,
      "inputs": [
        {
          "internalType": "address",
          "name": "",
          "type": "address"
        }
      ],
      "name": "compSupplyState",
      "outputs": [
        {
          "internalType": "uint224",
          "name": "index",
          "type": "uint224"
        },
        {
          "internalType": "uint32",
          "name": "block",
          "type": "uint32"
        }
      ],
      "payable": false,
      "stateMutability": "view",
      "type": "function"
    },
    {
      "constant": true,
      "inputs": [],
      "name": "comptrollerImplementation",
      "outputs": [
        {
          "internalType": "address",
          "name": "",
          "type": "address"
        }
      ],
      "payable": false,
      "stateMutability": "view",
      "type": "function"
    },
    {
      "constant": true,
      "inputs": [],
      "name": "liquidationIncentiveMantissa",
      "outputs": [
        {
          "internalType": "uint256",
          "name": "",
          "type": "uint256"
        }
      ],
      "payable": false,
      "stateMutability": "view",
      "type": "function"
    },
    {
      "constant": true,
      "inputs": [
        {
          "internalType": "address",
          "name": "",
          "type": "address"
        }
      ],
      "name": "markets",
      "outputs": [
        {
          "internalType": "bool",
          "name": "isListed",
          "type": "bool"
        },
        {
          "internalType": "uint256",
          "name": "collateralFactorMantissa",
          "type": "uint256"
        },
        {
          "internalType": "bool",
          "name": "isComped",
          "type": "bool"
        }
      ],
      "payable": false,
      "stateMutability": "view",
      "type": "function"
    },
    {
      "constant": true,
      "inputs": [],
      "name": "maxAssets",
      "outputs": [
        {
          "internalType": "uint256",
          "name": "",
          "type": "uint256"
        }
      ],
      "payable": false,
      "stateMutability": "view",
      "type": "function"
    },
    {
      "constant": true,
      "inputs": [
        {
          "internalType": "address",
          "name": "",
          "type": "address"
        }
      ],
      "name": "mintGuardianPaused",
      "outputs": [
        {
          "internalType": "bool",
          "name": "",
          "type": "bool"
        }
      ],
      "payable": false,
      "stateMutability": "view",
      "type": "function"
    },
    {
      "constant": true,
      "inputs": [],
      "name": "oracle",
      "outputs": [
        {
          "internalType": "contract PriceOracle",
          "name": "",
          "type": "address"
        }
      ],
      "payable": false,
      "stateMutability": "view",
      "type": "function"
    },
    {
      "constant": true,
      "inputs": [],
      "name": "pauseGuardian",
      "outputs": [
        {
          "internalType": "address",
          "name": "",
          "type": "address"
        }
      ],
      "payable": false,
      "stateMutability": "view",
      "type": "function"
    },
    {
      "constant": true,
      "inputs": [],
      "name": "pendingAdmin",
      "outputs": [
        {
          "internalType": "address",
          "name": "",
          "type": "address"
        }
      ],
      "payable": false,
      "stateMutability": "view",
      "type": "function"
    },
    {
      "constant": true,
      "inputs": [],
      "name": "pendingComptrollerImplementation",
      "outputs": [
        {
          "internalType": "address",
          "name": "",
          "type": "address"
        }
      ],
      "payable": false,
      "stateMutability": "view",
      "type": "function"
    },
    {
      "constant": true,
      "inputs": [],
      "name": "seizeGuardianPaused",
      "outputs": [
        {
          "internalType": "bool",
          "name": "",
          "type": "bool"
        }
      ],
      "payable": false,
      "stateMutability": "view",
      "type": "function"
    },
    {
      "constant": true,
      "inputs": [],
      "name": "transferGuardianPaused",
      "outputs": [
        {
          "internalType": "bool",
          "name": "",
          "type": "bool"
        }
      ],
      "payable": false,
      "stateMutability": "view",
      "type": "function"
    }
  ],
  "bytecode": "0x608060405234801561001057600080fd5b50610668806100206000396000f3fe608060405234801561001057600080fd5b50600436106101735760003560e01c80638e8f294b116100de578063ca0af04311610097578063dcfbc0c711610071578063dcfbc0c714610403578063e6653f3d1461040b578063e875544614610413578063f851a4401461041b57610173565b8063ca0af04314610383578063cc7ebdc4146103b1578063dce15449146103d757610173565b80638e8f294b146102ed57806394b2294b14610335578063aa9007541461033d578063ac0b0bb714610345578063b21be7fd1461034d578063bb82aa5e1461037b57610173565b80636b79c38d116101305780636b79c38d1461021d5780636d154ea51461026b578063731f0c2b146102915780637dc0d1d0146102b757806387f76303146102bf5780638c57804e146102c757610173565b80631d7b33d71461017857806324a3d622146101b057806326782247146101d45780633c94786f146101dc5780634ada90af146101f857806352d84d1e14610200575b600080fd5b61019e6004803603602081101561018e57600080fd5b50356001600160a01b0316610423565b60408051918252519081900360200190f35b6101b8610435565b604080516001600160a01b039092168252519081900360200190f35b6101b8610444565b6101e4610453565b604080519115158252519081900360200190f35b61019e610463565b6101b86004803603602081101561021657600080fd5b5035610469565b6102436004803603602081101561023357600080fd5b50356001600160a01b0316610490565b604080516001600160e01b03909316835263ffffffff90911660208301528051918290030190f35b6101e46004803603602081101561028157600080fd5b50356001600160a01b03166104ba565b6101e4600480360360208110156102a757600080fd5b50356001600160a01b03166104cf565b6101b86104e4565b6101e46104f3565b610243600480360360208110156102dd57600080fd5b50356001600160a01b0316610503565b6103136004803603602081101561030357600080fd5b50356001600160a01b031661052d565b6040805193151584526020840192909252151582820152519081900360600190f35b61019e610553565b61019e610559565b6101e461055f565b61019e6004803603604081101561036357600080fd5b506001600160a01b038135811691602001351661056f565b6101b861058c565b61019e6004803603604081101561039957600080fd5b506001600160a01b038135811691602001351661059b565b61019e600480360360208110156103c757600080fd5b50356001600160a01b03166105b8565b6101b8600480360360408110156103ed57600080fd5b506001600160a01b0381351690602001356105ca565b6101b86105ff565b6101e461060e565b61019e61061e565b6101b8610624565b600f6020526000908152604090205481565b600a546001600160a01b031681565b6001546001600160a01b031681565b600a54600160a01b900460ff1681565b60065481565b600d818154811061047657fe5b6000918252602090912001546001600160a01b0316905081565b6010602052600090815260409020546001600160e01b03811690600160e01b900463ffffffff1682565b600c6020526000908152604090205460ff1681565b600b6020526000908152604090205460ff1681565b6004546001600160a01b031681565b600a54600160b01b900460ff1681565b6011602052600090815260409020546001600160e01b03811690600160e01b900463ffffffff1682565b60096020526000908152604090208054600182015460039092015460ff91821692911683565b60075481565b600e5481565b600a54600160b81b900460ff1681565b601260209081526000928352604080842090915290825290205481565b6002546001600160a01b031681565b601360209081526000928352604080842090915290825290205481565b60146020526000908152604090205481565b600860205281600052604060002081815481106105e357fe5b6000918252602090912001546001600160a01b03169150829050565b6003546001600160a01b031681565b600a54600160a81b900460ff1681565b60055481565b6000546001600160a01b03168156fea265627a7a72315820630e71a588a3352b99c42543327d7ad28c28a6b1a099102ea6d04eb5e3c6ec4064736f6c63430005100032",
  "source": "pragma solidity ^0.5.16;\r\n\r\nimport \"./CToken.sol\";\r\nimport \"./PriceOracle.sol\";\r\n\r\ncontract UnitrollerAdminStorage {\r\n    /**\r\n    * @notice Administrator for this contract\r\n    */\r\n    address public admin;\r\n\r\n    /**\r\n    * @notice Pending administrator for this contract\r\n    */\r\n    address public pendingAdmin;\r\n\r\n    /**\r\n    * @notice Active brains of Unitroller\r\n    */\r\n    address public comptrollerImplementation;\r\n\r\n    /**\r\n    * @notice Pending brains of Unitroller\r\n    */\r\n    address public pendingComptrollerImplementation;\r\n}\r\n\r\ncontract ComptrollerV1Storage is UnitrollerAdminStorage {\r\n\r\n    /**\r\n     * @notice Oracle which gives the price of any given asset\r\n     */\r\n    PriceOracle public oracle;\r\n\r\n    /**\r\n     * @notice Multiplier used to calculate the maximum repayAmount when liquidating a borrow\r\n     */\r\n    uint public closeFactorMantissa;\r\n\r\n    /**\r\n     * @notice Multiplier representing the discount on collateral that a liquidator receives\r\n     */\r\n    uint public liquidationIncentiveMantissa;\r\n\r\n    /**\r\n     * @notice Max number of assets a single account can participate in (borrow or use as collateral)\r\n     */\r\n    uint public maxAssets;\r\n\r\n    /**\r\n     * @notice Per-account mapping of \"assets you are in\", capped by maxAssets\r\n     */\r\n    mapping(address => CToken[]) public accountAssets;\r\n\r\n}\r\n\r\ncontract ComptrollerV2Storage is ComptrollerV1Storage {\r\n    struct Market {\r\n        /// @notice Whether or not this market is listed\r\n        bool isListed;\r\n\r\n        /**\r\n         * @notice Multiplier representing the most one can borrow against their collateral in this market.\r\n         *  For instance, 0.9 to allow borrowing 90% of collateral value.\r\n         *  Must be between 0 and 1, and stored as a mantissa.\r\n         */\r\n        uint collateralFactorMantissa;\r\n\r\n        /// @notice Per-market mapping of \"accounts in this asset\"\r\n        mapping(address => bool) accountMembership;\r\n\r\n        /// @notice Whether or not this market receives LHB\r\n        bool isComped;\r\n    }\r\n\r\n    /**\r\n     * @notice Official mapping of cTokens -> Market metadata\r\n     * @dev Used e.g. to determine if a market is supported\r\n     */\r\n    mapping(address => Market) public markets;\r\n\r\n\r\n    /**\r\n     * @notice The Pause Guardian can pause certain actions as a safety mechanism.\r\n     *  Actions which allow users to remove their own assets cannot be paused.\r\n     *  Liquidation / seizing / transfer can only be paused globally, not by market.\r\n     */\r\n    address public pauseGuardian;\r\n    bool public _mintGuardianPaused;\r\n    bool public _borrowGuardianPaused;\r\n    bool public transferGuardianPaused;\r\n    bool public seizeGuardianPaused;\r\n    mapping(address => bool) public mintGuardianPaused;\r\n    mapping(address => bool) public borrowGuardianPaused;\r\n}\r\n\r\ncontract ComptrollerV3Storage is ComptrollerV2Storage {\r\n    struct CompMarketState {\r\n        /// @notice The market's last updated compBorrowIndex or compSupplyIndex\r\n        uint224 index;\r\n\r\n        /// @notice The block number the index was last updated at\r\n        uint32 block;\r\n    }\r\n\r\n    /// @notice A list of all markets\r\n    CToken[] public allMarkets;\r\n\r\n    /// @notice The rate at which the flywheel distributes LHB, per block\r\n    uint public compRate;\r\n\r\n    /// @notice The portion of compRate that each market currently receives\r\n    mapping(address => uint) public compSpeeds;\r\n\r\n    /// @notice The LHB market supply state for each market\r\n    mapping(address => CompMarketState) public compSupplyState;\r\n\r\n    /// @notice The LHB market borrow state for each market\r\n    mapping(address => CompMarketState) public compBorrowState;\r\n\r\n    /// @notice The LHB borrow index for each market for each supplier as of the last time they accrued LHB\r\n    mapping(address => mapping(address => uint)) public compSupplierIndex;\r\n\r\n    /// @notice The LHB borrow index for each market for each borrower as of the last time they accrued LHB\r\n    mapping(address => mapping(address => uint)) public compBorrowerIndex;\r\n\r\n    /// @notice The LHB accrued but not yet transferred to each user\r\n    mapping(address => uint) public compAccrued;\r\n}\r\n\r\ncontract ComptrollerV4Storage is ComptrollerV3Storage {\r\n    // @notice The borrowCapGuardian can set borrowCaps to any number for any market. Lowering the borrow cap could disable borrowing on the given market.\r\n    address public borrowCapGuardian;\r\n\r\n    // @notice Borrow caps enforced by borrowAllowed for each cToken address. Defaults to zero which corresponds to unlimited borrowing.\r\n    mapping(address => uint) public borrowCaps;\r\n}",
  "sourcePath": "D:\\GolandProjects\\lendhub\\contracts\\ComptrollerStorage.sol",
  "compiler": {
    "name": "solc",
    "version": "0.5.16+commit.9c3226ce.Emscripten.clang"
  },
  "schemaVersion": "3.4.1",
  "updatedAt": "2021-05-14T07:30:31.556Z",
  "devdoc": {
    "methods": {}
  },
  "userdoc": {
    "methods": {}
  }
}