{
  "contractName": "CrossChain",
  "abi": [
    {
      "inputs": [],
      "payable": false,
      "stateMutability": "nonpayable",
      "type": "constructor"
    },
    {
      "anonymous": false,
      "inputs": [
        {
          "indexed": false,
          "internalType": "address",
          "name": "nodeAddress_",
          "type": "address"
        }
      ],
      "name": "AddNode",
      "type": "event"
    },
    {
      "anonymous": false,
      "inputs": [
        {
          "components": [
            {
              "internalType": "uint256",
              "name": "nonce",
              "type": "uint256"
            },
            {
              "internalType": "uint256",
              "name": "fromChainId",
              "type": "uint256"
            },
            {
              "internalType": "uint256",
              "name": "targetChainId",
              "type": "uint256"
            },
            {
              "internalType": "address",
              "name": "fromToken",
              "type": "address"
            },
            {
              "internalType": "address",
              "name": "targetToken",
              "type": "address"
            },
            {
              "internalType": "uint256",
              "name": "amount",
              "type": "uint256"
            },
            {
              "internalType": "address",
              "name": "sender",
              "type": "address"
            },
            {
              "internalType": "address",
              "name": "received",
              "type": "address"
            },
            {
              "internalType": "bytes32",
              "name": "message",
              "type": "bytes32"
            },
            {
              "internalType": "uint256",
              "name": "state",
              "type": "uint256"
            },
            {
              "internalType": "uint256",
              "name": "timestamp",
              "type": "uint256"
            }
          ],
          "indexed": false,
          "internalType": "struct CrossStorage.CrossData",
          "name": "data",
          "type": "tuple"
        },
        {
          "indexed": false,
          "internalType": "string",
          "name": "crossType",
          "type": "string"
        }
      ],
      "name": "Cross2",
      "type": "event"
    },
    {
      "anonymous": false,
      "inputs": [
        {
          "indexed": false,
          "internalType": "address",
          "name": "nodeAddress_",
          "type": "address"
        }
      ],
      "name": "DeleteNode",
      "type": "event"
    },
    {
      "anonymous": false,
      "inputs": [
        {
          "indexed": false,
          "internalType": "uint256",
          "name": "oldApplyFactorMantisa",
          "type": "uint256"
        },
        {
          "indexed": false,
          "internalType": "uint256",
          "name": "applyFactorMantisa",
          "type": "uint256"
        }
      ],
      "name": "NewApplyFactor",
      "type": "event"
    },
    {
      "anonymous": false,
      "inputs": [
        {
          "indexed": true,
          "internalType": "address",
          "name": "previousOwner",
          "type": "address"
        },
        {
          "indexed": true,
          "internalType": "address",
          "name": "newOwner",
          "type": "address"
        }
      ],
      "name": "OwnershipTransferred",
      "type": "event"
    },
    {
      "anonymous": false,
      "inputs": [
        {
          "indexed": true,
          "internalType": "address",
          "name": "dst",
          "type": "address"
        },
        {
          "indexed": false,
          "internalType": "uint256",
          "name": "sad",
          "type": "uint256"
        }
      ],
      "name": "Rescue",
      "type": "event"
    },
    {
      "anonymous": false,
      "inputs": [
        {
          "indexed": true,
          "internalType": "address",
          "name": "dst",
          "type": "address"
        },
        {
          "indexed": true,
          "internalType": "address",
          "name": "token",
          "type": "address"
        },
        {
          "indexed": false,
          "internalType": "uint256",
          "name": "sad",
          "type": "uint256"
        }
      ],
      "name": "RescueToken",
      "type": "event"
    },
    {
      "payable": true,
      "stateMutability": "payable",
      "type": "fallback"
    },
    {
      "constant": true,
      "inputs": [],
      "name": "_admin",
      "outputs": [
        {
          "internalType": "address",
          "name": "",
          "type": "address"
        }
      ],
      "payable": false,
      "stateMutability": "view",
      "type": "function"
    },
    {
      "constant": true,
      "inputs": [],
      "name": "_chainId",
      "outputs": [
        {
          "internalType": "uint256",
          "name": "",
          "type": "uint256"
        }
      ],
      "payable": false,
      "stateMutability": "view",
      "type": "function"
    },
    {
      "constant": true,
      "inputs": [],
      "name": "_nonce",
      "outputs": [
        {
          "internalType": "uint256",
          "name": "",
          "type": "uint256"
        }
      ],
      "payable": false,
      "stateMutability": "view",
      "type": "function"
    },
    {
      "constant": true,
      "inputs": [
        {
          "internalType": "address",
          "name": "",
          "type": "address"
        }
      ],
      "name": "accountCrossList",
      "outputs": [
        {
          "internalType": "uint256",
          "name": "lastCrossNonce",
          "type": "uint256"
        }
      ],
      "payable": false,
      "stateMutability": "view",
      "type": "function"
    },
    {
      "constant": true,
      "inputs": [
        {
          "internalType": "uint256",
          "name": "",
          "type": "uint256"
        }
      ],
      "name": "allStoreList",
      "outputs": [
        {
          "internalType": "uint256",
          "name": "nonce",
          "type": "uint256"
        },
        {
          "internalType": "uint256",
          "name": "fromChainId",
          "type": "uint256"
        },
        {
          "internalType": "uint256",
          "name": "targetChainId",
          "type": "uint256"
        },
        {
          "internalType": "address",
          "name": "fromToken",
          "type": "address"
        },
        {
          "internalType": "address",
          "name": "targetToken",
          "type": "address"
        },
        {
          "internalType": "uint256",
          "name": "amount",
          "type": "uint256"
        },
        {
          "internalType": "address",
          "name": "sender",
          "type": "address"
        },
        {
          "internalType": "address",
          "name": "received",
          "type": "address"
        },
        {
          "internalType": "bytes32",
          "name": "message",
          "type": "bytes32"
        },
        {
          "internalType": "uint256",
          "name": "state",
          "type": "uint256"
        },
        {
          "internalType": "uint256",
          "name": "timestamp",
          "type": "uint256"
        }
      ],
      "payable": false,
      "stateMutability": "view",
      "type": "function"
    },
    {
      "constant": true,
      "inputs": [],
      "name": "applyFactorMantisa",
      "outputs": [
        {
          "internalType": "uint256",
          "name": "",
          "type": "uint256"
        }
      ],
      "payable": false,
      "stateMutability": "view",
      "type": "function"
    },
    {
      "constant": true,
      "inputs": [
        {
          "internalType": "uint256",
          "name": "ax",
          "type": "uint256"
        },
        {
          "internalType": "uint256",
          "name": "ay",
          "type": "uint256"
        },
        {
          "internalType": "uint256",
          "name": "bx",
          "type": "uint256"
        },
        {
          "internalType": "uint256",
          "name": "by",
          "type": "uint256"
        }
      ],
      "name": "cadd",
      "outputs": [
        {
          "internalType": "uint256",
          "name": "",
          "type": "uint256"
        },
        {
          "internalType": "uint256",
          "name": "",
          "type": "uint256"
        }
      ],
      "payable": false,
      "stateMutability": "pure",
      "type": "function"
    },
    {
      "constant": true,
      "inputs": [
        {
          "internalType": "uint256",
          "name": "x",
          "type": "uint256"
        },
        {
          "internalType": "uint256",
          "name": "y",
          "type": "uint256"
        },
        {
          "internalType": "uint256",
          "name": "scalar",
          "type": "uint256"
        }
      ],
      "name": "cmul",
      "outputs": [
        {
          "internalType": "uint256",
          "name": "",
          "type": "uint256"
        },
        {
          "internalType": "uint256",
          "name": "",
          "type": "uint256"
        }
      ],
      "payable": false,
      "stateMutability": "pure",
      "type": "function"
    },
    {
      "constant": true,
      "inputs": [],
      "name": "comptrollerImplementation",
      "outputs": [
        {
          "internalType": "address",
          "name": "",
          "type": "address"
        }
      ],
      "payable": false,
      "stateMutability": "view",
      "type": "function"
    },
    {
      "constant": true,
      "inputs": [
        {
          "internalType": "uint256",
          "name": "ell",
          "type": "uint256"
        },
        {
          "internalType": "uint256",
          "name": "idx",
          "type": "uint256"
        }
      ],
      "name": "computeCoefficient",
      "outputs": [
        {
          "internalType": "uint256",
          "name": "",
          "type": "uint256"
        }
      ],
      "payable": false,
      "stateMutability": "view",
      "type": "function"
    },
    {
      "constant": true,
      "inputs": [
        {
          "internalType": "bytes32",
          "name": "m",
          "type": "bytes32"
        },
        {
          "internalType": "uint256",
          "name": "a",
          "type": "uint256"
        },
        {
          "internalType": "uint256",
          "name": "b",
          "type": "uint256"
        }
      ],
      "name": "h",
      "outputs": [
        {
          "internalType": "uint256",
          "name": "",
          "type": "uint256"
        }
      ],
      "payable": false,
      "stateMutability": "pure",
      "type": "function"
    },
    {
      "constant": true,
      "inputs": [
        {
          "internalType": "uint256[]",
          "name": "self",
          "type": "uint256[]"
        },
        {
          "internalType": "uint256",
          "name": "value",
          "type": "uint256"
        }
      ],
      "name": "indexOf",
      "outputs": [
        {
          "internalType": "uint256",
          "name": "",
          "type": "uint256"
        }
      ],
      "payable": false,
      "stateMutability": "view",
      "type": "function"
    },
    {
      "constant": true,
      "inputs": [
        {
          "internalType": "address[]",
          "name": "self",
          "type": "address[]"
        },
        {
          "internalType": "address",
          "name": "value",
          "type": "address"
        }
      ],
      "name": "indexOfAddress",
      "outputs": [
        {
          "internalType": "bool",
          "name": "",
          "type": "bool"
        }
      ],
      "payable": false,
      "stateMutability": "view",
      "type": "function"
    },
    {
      "constant": true,
      "inputs": [],
      "name": "isOwner",
      "outputs": [
        {
          "internalType": "bool",
          "name": "",
          "type": "bool"
        }
      ],
      "payable": false,
      "stateMutability": "view",
      "type": "function"
    },
    {
      "constant": true,
      "inputs": [],
      "name": "lockPause",
      "outputs": [
        {
          "internalType": "bool",
          "name": "",
          "type": "bool"
        }
      ],
      "payable": false,
      "stateMutability": "view",
      "type": "function"
    },
    {
      "constant": true,
      "inputs": [],
      "name": "mantisa",
      "outputs": [
        {
          "internalType": "uint256",
          "name": "",
          "type": "uint256"
        }
      ],
      "payable": false,
      "stateMutability": "view",
      "type": "function"
    },
    {
      "constant": true,
      "inputs": [],
      "name": "mintPause",
      "outputs": [
        {
          "internalType": "bool",
          "name": "",
          "type": "bool"
        }
      ],
      "payable": false,
      "stateMutability": "view",
      "type": "function"
    },
    {
      "constant": true,
      "inputs": [
        {
          "internalType": "uint256",
          "name": "",
          "type": "uint256"
        }
      ],
      "name": "nodeList",
      "outputs": [
        {
          "internalType": "uint256",
          "name": "publicKey",
          "type": "uint256"
        },
        {
          "internalType": "address",
          "name": "nodeAddress",
          "type": "address"
        }
      ],
      "payable": false,
      "stateMutability": "view",
      "type": "function"
    },
    {
      "constant": true,
      "inputs": [],
      "name": "owner",
      "outputs": [
        {
          "internalType": "address",
          "name": "",
          "type": "address"
        }
      ],
      "payable": false,
      "stateMutability": "view",
      "type": "function"
    },
    {
      "constant": true,
      "inputs": [],
      "name": "pendingAdmin",
      "outputs": [
        {
          "internalType": "address",
          "name": "",
          "type": "address"
        }
      ],
      "payable": false,
      "stateMutability": "view",
      "type": "function"
    },
    {
      "constant": true,
      "inputs": [],
      "name": "pendingComptrollerImplementation",
      "outputs": [
        {
          "internalType": "address",
          "name": "",
          "type": "address"
        }
      ],
      "payable": false,
      "stateMutability": "view",
      "type": "function"
    },
    {
      "constant": false,
      "inputs": [],
      "name": "renounceOwnership",
      "outputs": [],
      "payable": false,
      "stateMutability": "nonpayable",
      "type": "function"
    },
    {
      "constant": true,
      "inputs": [
        {
          "internalType": "uint256",
          "name": "sig_s",
          "type": "uint256"
        }
      ],
      "name": "sg",
      "outputs": [
        {
          "internalType": "uint256",
          "name": "",
          "type": "uint256"
        },
        {
          "internalType": "uint256",
          "name": "",
          "type": "uint256"
        }
      ],
      "payable": false,
      "stateMutability": "pure",
      "type": "function"
    },
    {
      "constant": false,
      "inputs": [
        {
          "internalType": "address",
          "name": "newOwner",
          "type": "address"
        }
      ],
      "name": "transferOwnership",
      "outputs": [],
      "payable": false,
      "stateMutability": "nonpayable",
      "type": "function"
    },
    {
      "constant": true,
      "inputs": [
        {
          "internalType": "bytes32",
          "name": "rr",
          "type": "bytes32"
        },
        {
          "internalType": "bytes32",
          "name": "ss",
          "type": "bytes32"
        },
        {
          "internalType": "bytes32",
          "name": "groupKeyX",
          "type": "bytes32"
        },
        {
          "internalType": "bytes32",
          "name": "groupKeyY",
          "type": "bytes32"
        },
        {
          "internalType": "bytes32",
          "name": "message",
          "type": "bytes32"
        }
      ],
      "name": "verify",
      "outputs": [
        {
          "internalType": "bool",
          "name": "",
          "type": "bool"
        }
      ],
      "payable": false,
      "stateMutability": "view",
      "type": "function"
    },
    {
      "constant": false,
      "inputs": [
        {
          "internalType": "contract CrossDelegate",
          "name": "crossDelegate",
          "type": "address"
        }
      ],
      "name": "_become",
      "outputs": [],
      "payable": false,
      "stateMutability": "nonpayable",
      "type": "function"
    },
    {
      "constant": false,
      "inputs": [
        {
          "internalType": "uint256",
          "name": "chainId",
          "type": "uint256"
        }
      ],
      "name": "_setChainId",
      "outputs": [
        {
          "internalType": "bool",
          "name": "",
          "type": "bool"
        }
      ],
      "payable": false,
      "stateMutability": "nonpayable",
      "type": "function"
    },
    {
      "constant": false,
      "inputs": [
        {
          "internalType": "uint256",
          "name": "newApplyFactorMantisa",
          "type": "uint256"
        }
      ],
      "name": "_setMinApplyFactorMantisa",
      "outputs": [
        {
          "internalType": "bool",
          "name": "",
          "type": "bool"
        }
      ],
      "payable": false,
      "stateMutability": "nonpayable",
      "type": "function"
    },
    {
      "constant": false,
      "inputs": [
        {
          "internalType": "bool",
          "name": "state",
          "type": "bool"
        }
      ],
      "name": "_setLockPause",
      "outputs": [
        {
          "internalType": "bool",
          "name": "",
          "type": "bool"
        }
      ],
      "payable": false,
      "stateMutability": "nonpayable",
      "type": "function"
    },
    {
      "constant": false,
      "inputs": [
        {
          "internalType": "bool",
          "name": "state",
          "type": "bool"
        }
      ],
      "name": "_setMintPause",
      "outputs": [
        {
          "internalType": "bool",
          "name": "",
          "type": "bool"
        }
      ],
      "payable": false,
      "stateMutability": "nonpayable",
      "type": "function"
    },
    {
      "constant": true,
      "inputs": [],
      "name": "getNodeList",
      "outputs": [
        {
          "components": [
            {
              "internalType": "uint256",
              "name": "publicKey",
              "type": "uint256"
            },
            {
              "internalType": "address",
              "name": "nodeAddress",
              "type": "address"
            }
          ],
          "internalType": "struct CrossStorage.NodeItem[]",
          "name": "",
          "type": "tuple[]"
        }
      ],
      "payable": false,
      "stateMutability": "view",
      "type": "function"
    },
    {
      "constant": false,
      "inputs": [
        {
          "internalType": "address",
          "name": "nodeAddress_",
          "type": "address"
        },
        {
          "internalType": "uint256",
          "name": "publicKey",
          "type": "uint256"
        }
      ],
      "name": "addNodeItem",
      "outputs": [
        {
          "internalType": "bool",
          "name": "",
          "type": "bool"
        }
      ],
      "payable": false,
      "stateMutability": "nonpayable",
      "type": "function"
    },
    {
      "constant": false,
      "inputs": [
        {
          "internalType": "address",
          "name": "nodeAddress_",
          "type": "address"
        }
      ],
      "name": "deleteNodeItem",
      "outputs": [
        {
          "internalType": "bool",
          "name": "",
          "type": "bool"
        }
      ],
      "payable": false,
      "stateMutability": "nonpayable",
      "type": "function"
    },
    {
      "constant": true,
      "inputs": [
        {
          "internalType": "address",
          "name": "nodeAddress_",
          "type": "address"
        }
      ],
      "name": "getPublicKeyByAddress",
      "outputs": [
        {
          "internalType": "bool",
          "name": "",
          "type": "bool"
        },
        {
          "internalType": "uint256",
          "name": "",
          "type": "uint256"
        }
      ],
      "payable": false,
      "stateMutability": "view",
      "type": "function"
    },
    {
      "constant": true,
      "inputs": [
        {
          "internalType": "address[]",
          "name": "nodeArr",
          "type": "address[]"
        }
      ],
      "name": "getPublicKeysByConfig",
      "outputs": [
        {
          "internalType": "uint256[]",
          "name": "",
          "type": "uint256[]"
        }
      ],
      "payable": false,
      "stateMutability": "view",
      "type": "function"
    },
    {
      "constant": true,
      "inputs": [
        {
          "internalType": "uint256[]",
          "name": "publicKeys",
          "type": "uint256[]"
        }
      ],
      "name": "getCombinePubkey",
      "outputs": [
        {
          "internalType": "uint256",
          "name": "",
          "type": "uint256"
        },
        {
          "internalType": "uint256",
          "name": "",
          "type": "uint256"
        }
      ],
      "payable": false,
      "stateMutability": "view",
      "type": "function"
    },
    {
      "constant": true,
      "inputs": [
        {
          "internalType": "address[]",
          "name": "nodeArr",
          "type": "address[]"
        }
      ],
      "name": "getCombinePubkey",
      "outputs": [
        {
          "internalType": "uint256",
          "name": "",
          "type": "uint256"
        },
        {
          "internalType": "uint256",
          "name": "",
          "type": "uint256"
        }
      ],
      "payable": false,
      "stateMutability": "view",
      "type": "function"
    },
    {
      "constant": false,
      "inputs": [
        {
          "internalType": "address",
          "name": "fromToken",
          "type": "address"
        },
        {
          "internalType": "uint256",
          "name": "targetChainId",
          "type": "uint256"
        },
        {
          "internalType": "address",
          "name": "targetToken",
          "type": "address"
        },
        {
          "internalType": "uint256",
          "name": "amount",
          "type": "uint256"
        },
        {
          "internalType": "address",
          "name": "received",
          "type": "address"
        }
      ],
      "name": "lock",
      "outputs": [
        {
          "internalType": "bool",
          "name": "success",
          "type": "bool"
        }
      ],
      "payable": true,
      "stateMutability": "payable",
      "type": "function"
    },
    {
      "constant": false,
      "inputs": [
        {
          "internalType": "bytes32",
          "name": "message",
          "type": "bytes32"
        },
        {
          "internalType": "address",
          "name": "targetToken",
          "type": "address"
        },
        {
          "internalType": "uint256",
          "name": "amount",
          "type": "uint256"
        },
        {
          "internalType": "address payable",
          "name": "received",
          "type": "address"
        },
        {
          "internalType": "uint256",
          "name": "fromChainId",
          "type": "uint256"
        }
      ],
      "name": "mint",
      "outputs": [
        {
          "internalType": "bool",
          "name": "success",
          "type": "bool"
        }
      ],
      "payable": false,
      "stateMutability": "nonpayable",
      "type": "function"
    },
    {
      "constant": false,
      "inputs": [
        {
          "internalType": "uint256",
          "name": "nonce",
          "type": "uint256"
        },
        {
          "internalType": "uint256",
          "name": "state",
          "type": "uint256"
        }
      ],
      "name": "updateState",
      "outputs": [
        {
          "internalType": "bool",
          "name": "",
          "type": "bool"
        }
      ],
      "payable": false,
      "stateMutability": "nonpayable",
      "type": "function"
    },
    {
      "constant": true,
      "inputs": [
        {
          "internalType": "address[]",
          "name": "nodeArr",
          "type": "address[]"
        },
        {
          "internalType": "bytes32",
          "name": "message",
          "type": "bytes32"
        },
        {
          "internalType": "bytes",
          "name": "sign",
          "type": "bytes"
        }
      ],
      "name": "verifySign",
      "outputs": [
        {
          "internalType": "bool",
          "name": "",
          "type": "bool"
        }
      ],
      "payable": false,
      "stateMutability": "view",
      "type": "function"
    },
    {
      "constant": false,
      "inputs": [
        {
          "internalType": "address payable",
          "name": "to_",
          "type": "address"
        },
        {
          "internalType": "uint256",
          "name": "amount_",
          "type": "uint256"
        }
      ],
      "name": "rescue",
      "outputs": [],
      "payable": false,
      "stateMutability": "nonpayable",
      "type": "function"
    },
    {
      "constant": false,
      "inputs": [
        {
          "internalType": "address",
          "name": "to_",
          "type": "address"
        },
        {
          "internalType": "contract ITRC20",
          "name": "token_",
          "type": "address"
        },
        {
          "internalType": "uint256",
          "name": "amount_",
          "type": "uint256"
        }
      ],
      "name": "rescueToken",
      "outputs": [],
      "payable": false,
      "stateMutability": "nonpayable",
      "type": "function"
    },
    {
      "constant": true,
      "inputs": [
        {
          "internalType": "address",
          "name": "token",
          "type": "address"
        }
      ],
      "name": "getBalanceOf",
      "outputs": [
        {
          "internalType": "uint256",
          "name": "balance",
          "type": "uint256"
        }
      ],
      "payable": false,
      "stateMutability": "view",
      "type": "function"
    }
  ],
  "bytecode": "0x608060405260006005556706f05b59d3b200006007556008805461ffff191690553480156200002d57600080fd5b50620000416001600160e01b036200008f16565b600080546001600160a01b0319166001600160a01b03928316178082556040519216917f8be0079c531659141344cd1fd0a4f28419497f9722a3daafe3b4186f6b6457e0908290a362000093565b3390565b6141de80620000a36000396000f3fe6080604052600436106102675760003560e01c80637cd633d811610144578063d1c0d018116100b6578063f2fde38b1161007a578063f2fde38b14610700578063f406dc9b14610720578063f4da31991461074d578063f8fd2e831461076d578063fb3941b41461078d578063fdc29242146107ad57610267565b8063d1c0d0181461066b578063dcfbc0c71461068b578063de7ff048146106a0578063e5711e8b146106c0578063edfdf5df146106e057610267565b80639b96eece116101085780639b96eece146105d7578063a488b581146105f7578063b5fc0eba1461060c578063b803e26614610621578063bb82aa5e14610636578063c011f0891461064b57610267565b80637cd633d8146105585780638b62d3e1146105785780638da5cb5b1461058d5780638f32d59b146105a257806399cb376f146105b757610267565b80635b7da471116101dd5780636495d679116101a15780636495d679146104ae578063715018a6146104ce57806372dbafc4146104e3578063747734121461050357806374a539ef146105185780637a4e4ecf1461053857610267565b80635b7da4711461040b5780635d1222aa146104395780635eb62f631461044e5780635ed89b5f1461046e5780636457237b1461048e57610267565b80632dfb77cc1161022f5780632dfb77cc14610317578063333003901461034557806345a61978146103655780634b77fe191461038557806353f3b713146103bc578063581674b3146103de57610267565b806301bc45c91461026957806313b86514146102945780631d504dc6146102b4578063208f2a31146102d45780632678224714610302575b005b34801561027557600080fd5b5061027e6107cd565b60405161028b9190613d42565b60405180910390f35b6102a76102a2366004613007565b6107dc565b60405161028b9190613dc3565b3480156102c057600080fd5b506102676102cf366004613320565b610ca4565b3480156102e057600080fd5b506102f46102ef36600461333e565b610dd8565b60405161028b929190613f7f565b34801561030e57600080fd5b5061027e610e0c565b34801561032357600080fd5b506103376103323660046132ee565b610e1b565b60405161028b929190613f9a565b34801561035157600080fd5b506102a761036036600461322f565b610e35565b34801561037157600080fd5b5061033761038036600461316a565b61131d565b34801561039157600080fd5b506103a56103a036600461333e565b611444565b60405161028b9b9a99989796959493929190613fa8565b3480156103c857600080fd5b506103d16114ad565b60405161028b9190613da1565b3480156103ea57600080fd5b506103fe6103f936600461335c565b611523565b60405161028b9190613f71565b34801561041757600080fd5b5061042b610426366004612f44565b61162d565b60405161028b929190613dd1565b34801561044557600080fd5b506103fe6116b8565b34801561045a57600080fd5b506102a761046936600461335c565b6116be565b34801561047a57600080fd5b506102a761048936600461333e565b6116fd565b34801561049a57600080fd5b506103fe6104a936600461319f565b611770565b3480156104ba57600080fd5b506103376104c936600461337b565b6117b2565b3480156104da57600080fd5b506102676117ce565b3480156104ef57600080fd5b506102a76104fe366004612f44565b61183c565b34801561050f57600080fd5b506103fe61197f565b34801561052457600080fd5b506102a76105333660046130f8565b611985565b34801561054457600080fd5b50610267610553366004612f80565b6119dc565b34801561056457600080fd5b506102a7610573366004613297565b611ac2565b34801561058457600080fd5b506102a7611b3e565b34801561059957600080fd5b5061027e611b47565b3480156105ae57600080fd5b506102a7611b56565b3480156105c357600080fd5b506102a76105d2366004612f80565b611b7a565b3480156105e357600080fd5b506103fe6105f2366004612f44565b611cd3565b34801561060357600080fd5b506103fe611d54565b34801561061857600080fd5b506103fe611d5a565b34801561062d57600080fd5b506102a7611d66565b34801561064257600080fd5b5061027e611d74565b34801561065757600080fd5b506102a76106663660046131d5565b611d83565b34801561067757600080fd5b5061033761068636600461307c565b611dc3565b34801561069757600080fd5b5061027e611de6565b3480156106ac57600080fd5b506102a76106bb36600461333e565b611df5565b3480156106cc57600080fd5b506102676106db366004612fba565b611e1f565b3480156106ec57600080fd5b506103fe6106fb366004612f44565b611f5a565b34801561070c57600080fd5b5061026761071b366004612f44565b611f6c565b34801561072c57600080fd5b5061074061073b36600461307c565b611f99565b60405161028b9190613db2565b34801561075957600080fd5b506102a76107683660046131d5565b612030565b34801561077957600080fd5b5061033761078836600461333e565b612076565b34801561079957600080fd5b506103fe6107a83660046132ee565b61209b565b3480156107b957600080fd5b506102a76107c83660046130b1565b612119565b6001546001600160a01b031681565b60085460009060ff161561080b5760405162461bcd60e51b815260040161080290613eaf565b60405180910390fd5b6000851161082b5760405162461bcd60e51b815260040161080290613eef565b6001600160a01b0382166108515760405162461bcd60e51b815260040161080290613f0f565b60006001600160a01b038716156108a757600084116108825760405162461bcd60e51b815260040161080290613e8f565b8661089e6001600160a01b03821633308863ffffffff61216f16565b849150506108f0565b6001600160a01b0385166108cd5760405162461bcd60e51b815260040161080290613e0f565b600034116108ed5760405162461bcd60e51b815260040161080290613e5f565b50345b60056000815480929190600101919050555060405180610160016040528060055481526020016006548152602001878152602001886001600160a01b03168152602001866001600160a01b03168152602001828152602001336001600160a01b03168152602001846001600160a01b031681526020016000801b81526020016001815260200142815250600a60008201518160000155602082015181600101556040820151816002015560608201518160030160006101000a8154816001600160a01b0302191690836001600160a01b0316021790555060808201518160040160006101000a8154816001600160a01b0302191690836001600160a01b0316021790555060a0820151816005015560c08201518160060160006101000a8154816001600160a01b0302191690836001600160a01b0316021790555060e08201518160070160006101000a8154816001600160a01b0302191690836001600160a01b031602179055506101008201518160080155610120820151816009015561014082015181600a015590505060055460156000336001600160a01b03166001600160a01b031681526020019081526020016000206000018190555060156000336001600160a01b03166001600160a01b031681526020019081526020016000206001016005549080600181540180825580915050906001820390600052602060002001600090919290919091505550600a6016600060055481526020019081526020016000206000820154816000015560018201548160010155600282015481600201556003820160009054906101000a90046001600160a01b03168160030160006101000a8154816001600160a01b0302191690836001600160a01b031602179055506004820160009054906101000a90046001600160a01b03168160040160006101000a8154816001600160a01b0302191690836001600160a01b03160217905550600582015481600501556006820160009054906101000a90046001600160a01b03168160060160006101000a8154816001600160a01b0302191690836001600160a01b031602179055506007820160009054906101000a90046001600160a01b03168160070160006101000a8154816001600160a01b0302191690836001600160a01b031602179055506008820154816008015560098201548160090155600a82015481600a01559050507f0ea76d79910cb96256d1e4d5b4214dbe5dde8d040acecd9e4e167bd6c15efd03600a604051610c8f9190613f2f565b60405180910390a15060019695505050505050565b806001600160a01b03166301bc45c96040518163ffffffff1660e01b815260040160206040518083038186803b158015610cdd57600080fd5b505afa158015610cf1573d6000803e3d6000fd5b505050506040513d601f19601f82011682018060405250610d159190810190612f62565b6001600160a01b0316336001600160a01b031614610d455760405162461bcd60e51b815260040161080290613e3f565b806001600160a01b031663c1e803346040518163ffffffff1660e01b8152600401602060405180830381600087803b158015610d8057600080fd5b505af1158015610d94573d6000803e3d6000fd5b505050506040513d601f19601f82011682018060405250610db89190810190613211565b15610dd55760405162461bcd60e51b815260040161080290613ecf565b50565b60098181548110610de557fe5b6000918252602090912060029091020180546001909101549091506001600160a01b031682565b6002546001600160a01b031681565b600080610e298585856121d0565b91509150935093915050565b600854600090610100900460ff1615610e605760405162461bcd60e51b815260040161080290613def565b6001600160a01b038316610e865760405162461bcd60e51b815260040161080290613f1f565b60008411610ea65760405162461bcd60e51b815260040161080290613e8f565b60008211610ec65760405162461bcd60e51b815260040161080290613e6f565b6060610ed0612215565b90506000610ede8233612119565b9050600181151514610f025760405162461bcd60e51b815260040161080290613ddf565b6001600160a01b03871615610f325786610f2c6001600160a01b038216878963ffffffff6122ba16565b50610f6a565b6040516001600160a01b0386169087156108fc029088906000818181858888f19350505050158015610f68573d6000803e3d6000fd5b505b6005600081548092919060010191905055506040518061016001604052806005548152602001858152602001600654815260200160006001600160a01b03168152602001886001600160a01b03168152602001878152602001336001600160a01b03168152602001866001600160a01b031681526020018981526020016002815260200142815250600a60008201518160000155602082015181600101556040820151816002015560608201518160030160006101000a8154816001600160a01b0302191690836001600160a01b0316021790555060808201518160040160006101000a8154816001600160a01b0302191690836001600160a01b0316021790555060a0820151816005015560c08201518160060160006101000a8154816001600160a01b0302191690836001600160a01b0316021790555060e08201518160070160006101000a8154816001600160a01b0302191690836001600160a01b031602179055506101008201518160080155610120820151816009015561014082015181600a015590505060055460156000876001600160a01b03166001600160a01b031681526020019081526020016000206000018190555060156000866001600160a01b03166001600160a01b031681526020019081526020016000206001016005549080600181540180825580915050906001820390600052602060002001600090919290919091505550600a6016600060055481526020019081526020016000206000820154816000015560018201548160010155600282015481600201556003820160009054906101000a90046001600160a01b03168160030160006101000a8154816001600160a01b0302191690836001600160a01b031602179055506004820160009054906101000a90046001600160a01b03168160040160006101000a8154816001600160a01b0302191690836001600160a01b03160217905550600582015481600501556006820160009054906101000a90046001600160a01b03168160060160006101000a8154816001600160a01b0302191690836001600160a01b031602179055506007820160009054906101000a90046001600160a01b03168160070160006101000a8154816001600160a01b0302191690836001600160a01b031602179055506008820154816008015560098201548160090155600a82015481600a01559050507f0ea76d79910cb96256d1e4d5b4214dbe5dde8d040acecd9e4e167bd6c15efd03600a6040516113079190613f50565b60405180910390a1506001979650505050505050565b60008060006401000003d01960028560405160200161133c9190613c1a565b60408051601f198184030181529082905261135691613ca5565b602060405180830381855afa158015611373573d6000803e3d6000fd5b5050506040513d601f19601f820116820180604052506113969190810190613211565b8161139d57fe5b069050600080805b86518110156114385760006113ba8583611523565b905060006113da8984815181106113cd57fe5b60200260200101516123d0565b9150506000806113fe8b86815181106113ef57fe5b60200260200101518486610e1b565b91509150846000141561141657819650809550611428565b611422878784846117b2565b90975095505b5050600190920191506113a59050565b50909350915050915091565b601660205260009081526040902080546001820154600283015460038401546004850154600586015460068701546007880154600889015460098a0154600a909a01549899979896976001600160a01b039687169795871696949593851694909216929091908b565b60606009805480602002602001604051908101604052809291908181526020016000905b828210156115195760008481526020908190206040805180820190915260028502909101805482526001908101546001600160a01b03168284015290835290920191016114d1565b5050505090505b90565b600080600260405160200161153790613cbc565b60408051601f198184030181529082905261155191613ca5565b602060405180830381855afa15801561156e573d6000803e3d6000fd5b5050506040513d601f19601f820116820180604052506115919190810190613211565b9050606061159e84612431565b90506401000003d0196002838488856040516020016115c09493929190613cfc565b60408051601f19818403018152908290526115da91613ca5565b602060405180830381855afa1580156115f7573d6000803e3d6000fd5b5050506040513d601f19601f8201168201806040525061161a9190810190613211565b8161162157fe5b06925050505b92915050565b60095460009081908180805b838110156116ad57866001600160a01b03166009828154811061165857fe5b60009182526020909120600160029092020101546001600160a01b031614156116a5576009818154811061168857fe5b9060005260206000209060020201600001549250600191506116ad565b600101611639565b509350915050915091565b60055481565b60006116c8611b56565b6116e45760405162461bcd60e51b815260040161080290613e9f565b5060009182526016602052604090912060090155600190565b6000611707611b56565b6117235760405162461bcd60e51b815260040161080290613e9f565b60078054908390556040517f5a6f072e67ed8e2fc72687cdcfbecff3c338fc294f5c0127159c66a4987348b69061175d9083908690613f9a565b60405180910390a160019150505b919050565b6000805b83518110156117a7578284828151811061178a57fe5b6020026020010151141561179f579050611627565b600101611774565b506000199392505050565b6000806117c1868686866124a6565b9150915094509492505050565b6117d6611b56565b6117f25760405162461bcd60e51b815260040161080290613e9f565b600080546040516001600160a01b03909116907f8be0079c531659141344cd1fd0a4f28419497f9722a3daafe3b4186f6b6457e0908390a3600080546001600160a01b0319169055565b6000611846611b56565b6118625760405162461bcd60e51b815260040161080290613e9f565b6009548060005b828110156118bb57846001600160a01b03166009828154811061188857fe5b60009182526020909120600160029092020101546001600160a01b031614156118b3578091506118bb565b600101611869565b508181106118c557fe5b600960018303815481106118d557fe5b9060005260206000209060020201600982815481106118f057fe5b600091825260209091208254600290920201908155600191820154910180546001600160a01b0319166001600160a01b03909216919091179055600980549061193d906000198301612c9c565b507f74976f07ac4bfb6a02b2dbd3bc158d4984ee6027d938e870692126ca9e1931d58460405161196d9190613d42565b60405180910390a15060019392505050565b60065481565b6000806119938360006124ef565b905060006119a28460206124ef565b905060006119af87611dc3565b50905060006119bd826123d0565b91506119ce9050848484848b611ac2565b9450505050505b9392505050565b6119e4611b56565b611a005760405162461bcd60e51b815260040161080290613e9f565b6001600160a01b038216611a265760405162461bcd60e51b815260040161080290613dff565b60008111611a465760405162461bcd60e51b815260040161080290613e2f565b6040516001600160a01b0383169082156108fc029083906000818181858888f19350505050158015611a7c573d6000803e3d6000fd5b50816001600160a01b03167f542fa6bfee3b4746210fbdd1d83f9e49b65adde3639f8d8f165dd18347938af282604051611ab69190613f71565b60405180910390a25050565b6000611acc612cc8565b805185905280516020908101859052606082018490526080820184905260a08201805189905251018690526000611b0488878661252d565b9050611b0e612d1c565b611b258360a0015160200151838560000151612655565b60a0909301515192519092149250505095945050505050565b60085460ff1681565b6000546001600160a01b031690565b600080546001600160a01b0316611b6b6126f8565b6001600160a01b031614905090565b6000611b84611b56565b611ba05760405162461bcd60e51b815260040161080290613e9f565b60005b600954811015611c0757836001600160a01b031660098281548110611bc457fe5b60009182526020909120600160029092020101546001600160a01b03161415611bff5760405162461bcd60e51b815260040161080290613eff565b600101611ba3565b50611c10612d36565b506040805180820182528381526001600160a01b03858116602083019081526009805460018101825560009190915283517f6e1540171b6c0c960b71a7020d9f60077f6af931a8bbf590da0223dacf75c7af60029092029182015590517f6e1540171b6c0c960b71a7020d9f60077f6af931a8bbf590da0223dacf75c7b090910180546001600160a01b0319169190921617905590517f2a7b8f148f3938b7f43daee2d7e0739a41e7c071de51671561efef3b789b9eef9061196d908690613d42565b6040516370a0823160e01b815260009082906001600160a01b038216906370a0823190611d04903090600401613d50565b60206040518083038186803b158015611d1c57600080fd5b505afa158015611d30573d6000803e3d6000fd5b505050506040513d601f19601f820116820180604052506119d59190810190613211565b60075481565b670de0b6b3a764000081565b600854610100900460ff1681565b6003546001600160a01b031681565b6000611d8d611b56565b611da95760405162461bcd60e51b815260040161080290613e9f565b506008805460ff1916911515919091179081905560ff1690565b6000806060611dd184611f99565b9050611ddc8161131d565b9250925050915091565b6004546001600160a01b031681565b6000808211611e165760405162461bcd60e51b815260040161080290613e7f565b50600655600190565b611e27611b56565b611e435760405162461bcd60e51b815260040161080290613e9f565b6001600160a01b038316611e695760405162461bcd60e51b815260040161080290613dff565b60008111611e895760405162461bcd60e51b815260040161080290613e2f565b60405163a9059cbb60e01b81526001600160a01b0383169063a9059cbb90611eb79086908590600401613d86565b602060405180830381600087803b158015611ed157600080fd5b505af1158015611ee5573d6000803e3d6000fd5b505050506040513d601f19601f82011682018060405250611f0991908101906131f3565b50816001600160a01b0316836001600160a01b03167faabf44ab9d5bef08d1b60f287a337f0d11a248e49741ad189b429e47e98ba91083604051611f4d9190613f71565b60405180910390a3505050565b60156020526000908152604090205481565b611f74611b56565b611f905760405162461bcd60e51b815260040161080290613e9f565b610dd5816126fc565b6060600082519050606081604051908082528060200260200182016040528015611fcd578160200160208202803883390190505b50905060005b8281101561202857600080611ffa878481518110611fed57fe5b602002602001015161162d565b91509150811561201e578084848151811061201157fe5b6020026020010181815250505b5050600101611fd3565b509392505050565b600061203a611b56565b6120565760405162461bcd60e51b815260040161080290613e9f565b506008805461ff0019166101009215158302179081905560ff9190041690565b60008061209261208461277d565b61208c6127a1565b856121d0565b91509150915091565b6000600284600485856040516020016120b79493929190613c5d565b60408051601f19818403018152908290526120d191613ca5565b602060405180830381855afa1580156120ee573d6000803e3d6000fd5b5050506040513d601f19601f820116820180604052506121119190810190613211565b949350505050565b6000805b835181101561216557826001600160a01b031684828151811061213c57fe5b60200260200101516001600160a01b0316141561215d576001915050611627565b60010161211d565b5060009392505050565b6040516121ca9085906323b872dd60e01b9061219390879087908790602401613d5e565b60408051601f198184030181529190526020810180516001600160e01b03166001600160e01b0319909316929092179091526127c5565b50505050565b60008060006121e284878760016128aa565b919450925090506121f28161292b565b90506401000003d01981840992506401000003d019818309915050935093915050565b600954604080518281526020808402820101909152606091908290828015612247578160200160208202803883390190505b50905060005b828110156122b3576009818154811061226257fe5b906000526020600020906002020160010160009054906101000a90046001600160a01b031682828151811061229357fe5b6001600160a01b039092166020928302919091019091015260010161224d565b5091505090565b6001600160a01b03831673a614f803b6fd780986a42c78ec9c7f77e6ded13c14156123a95760006060846001600160a01b031663a9059cbb8585604051602401612305929190613d86565b6040516020818303038152906040529060e01b6020820180516001600160e01b03838183161783525050505060405161233e9190613ca5565b6000604051808303816000865af19150503d806000811461237b576040519150601f19603f3d011682016040523d82523d6000602084013e612380565b606091505b5091509150816123a25760405162461bcd60e51b815260040161080290613edf565b50506123cb565b6040516123cb90849063a9059cbb60e01b906121939086908690602401613d86565b505050565b600080806401000003d01960076401000003d019866401000003d0198889090908905060006124108263400000f4600160fe1b036401000003d01961297f565b90506002810615612427576401000003d019908103065b9092509050915091565b60408051600480825281830190925260609182919060208201818038833901905050905060005b600481101561249f578060080260020a848161247057fe5b0460f81b82828151811061248057fe5b60200101906001600160f81b031916908160001a905350600101612458565b5092915050565b60008060006124bb87876001888860016129e4565b919450925090506124cb8161292b565b90506401000003d01981840992506401000003d01981830991505094509492505050565b600080805b60208110156120285780600802858286018151811061250f57fe5b01602001516001600160f81b031916901c91909117906001016124f4565b600080600260405160200161254190613cb1565b60408051601f198184030181529082905261255b91613ca5565b602060405180830381855afa158015612578573d6000803e3d6000fd5b5050506040513d601f19601f8201168201806040525061259b9190810190613211565b60001c905060608585856040516020016125b793929190613c26565b604051602081830303815290604052905060006401000003d01960028485856040516020016125e893929190613cc7565b60408051601f198184030181529082905261260291613ca5565b602060405180830381855afa15801561261f573d6000803e3d6000fd5b5050506040513d601f19601f820116820180604052506126429190810190613211565b8161264957fe5b06979650505050505050565b61265d612d1c565b612665612d1c565b61267e61267061277d565b6126786127a1565b87610e1b565b6020830152815261268d612d1c565b6126a08460000151856020015187610e1b565b602083015281526126af612d1c565b6126b882612b73565b90506000806126d985600001518660200151856000015186602001516117b2565b6040805180820190915291825260208201529998505050505050505050565b3390565b6001600160a01b0381166127225760405162461bcd60e51b815260040161080290613e1f565b600080546040516001600160a01b03808516939216917f8be0079c531659141344cd1fd0a4f28419497f9722a3daafe3b4186f6b6457e091a3600080546001600160a01b0319166001600160a01b0392909216919091179055565b7f79be667ef9dcbbac55a06295ce870b07029bfcdb2dce28d959f2815b16f8179890565b7f483ada7726a3c4655da4fbfc0e1108a8fd17b448a68554199c47d08ffb10d4b890565b6127d7826001600160a01b0316612be3565b6127f35760405162461bcd60e51b815260040161080290613e4f565b60006060836001600160a01b03168360405161280f9190613ca5565b6000604051808303816000865af19150503d806000811461284c576040519150601f19603f3d011682016040523d82523d6000602084013e612851565b606091505b5091509150816128735760405162461bcd60e51b815260040161080290613edf565b8051156121ca578080602001905161288e91908101906131f3565b6121ca5760405162461bcd60e51b815260040161080290613ebf565b600080808686868684806001866128d35750600098508897506001965061292195505050505050565b86156129155760018716156128f8576128f08383838989896129e4565b919450925090505b600287049650612909868686612be9565b919750955093506128d3565b91985096509450505050505b9450945094915050565b60008060016401000003d01984835b81156129745781838161294957fe5b049050836401000003d019808684096401000003d0190387089095509350909181830290039061293a565b509295945050505050565b60008061298a612d4d565b612992612d6b565b602080825281810181905260408201819052606082018890526080820187905260a082018690528260c08360056107d05a03fa92508280156102675750826129d957600080fd5b505195945050505050565b60008080808080808c1580156129f857508b155b15612a0f5789898996509650965050505050612b67565b89158015612a1b575088155b15612a32578c8c8c96509650965050505050612b67565b898d148015612a405750888c145b15612a9457612a518d8c8f8e612c0b565b9094509250612a64848460036001612c0b565b9094509250612a77848460006001612c30565b9094509250612a8a8c8c60026001612c0b565b9092509050612ab7565b612aa089898e8e612c56565b9094509250612ab18a898f8e612c56565b90925090505b612ac384848484612c78565b9094509250612ad484848181612c0b565b9097509150612ae587838f8e612c56565b9097509150612af687838c8b612c56565b9097509150612b078d8c8985612c56565b9096509050612b1886828686612c0b565b9096509050612b2986828e8e612c56565b9096509050818114612b5e576401000003d01981880996506401000003d01982870995506401000003d0198183099450612b62565b8194505b505050505b96509650969350505050565b612b7b612d1c565b81516401000003d01990158015612b9457506020830151155b15612bb4575050604080518082019091526000808252602082015261176b565b60405180604001604052808460000151815260200182856020015181612bd657fe5b0690920390915292915050565b3b151590565b6000806000612bfc8686868989896129e4565b91989097509095509350505050565b6000806401000003d0198487096401000003d0195b8487099097909650945050505050565b6000806401000003d019808686096401000003d0195b888609086401000003d019612c20565b6000806401000003d0198086866401000003d01903096401000003d019612c46565b6000806401000003d0198387096401000003d0198587099097909650945050505050565b8154818355818111156123cb576002028160020283600052602060002091820191016123cb9190612d89565b6040518060e00160405280612cdb612d1c565b8152602001612ce8612d1c565b8152600060208201819052604082018190526060820152608001612d0a612d1c565b8152602001612d17612d1c565b905290565b604051806040016040528060008152602001600081525090565b604080518082019091526000808252602082015290565b60405180602001604052806001906020820280388339509192915050565b6040518060c001604052806006906020820280388339509192915050565b61152091905b80821115612db557600081556001810180546001600160a01b0319169055600201612d8f565b5090565b80356116278161416c565b80516116278161416c565b600082601f830112612de057600080fd5b8135612df3612dee82614073565b61404c565b91508181835260208401935060208101905083856020840282011115612e1857600080fd5b60005b83811015612e445781612e2e8882612db9565b8452506020928301929190910190600101612e1b565b5050505092915050565b600082601f830112612e5f57600080fd5b8135612e6d612dee82614073565b91508181835260208401935060208101905083856020840282011115612e9257600080fd5b60005b83811015612e445781612ea88882612ed4565b8452506020928301929190910190600101612e95565b803561162781614180565b805161162781614180565b803561162781614189565b805161162781614189565b600082601f830112612efb57600080fd5b8135612f09612dee82614094565b91508082526020830160208301858383011115612f2557600080fd5b612f30838284614107565b50505092915050565b803561162781614192565b600060208284031215612f5657600080fd5b60006121118484612db9565b600060208284031215612f7457600080fd5b60006121118484612dc4565b60008060408385031215612f9357600080fd5b6000612f9f8585612db9565b9250506020612fb085828601612ed4565b9150509250929050565b600080600060608486031215612fcf57600080fd5b6000612fdb8686612db9565b9350506020612fec86828701612f39565b9250506040612ffd86828701612ed4565b9150509250925092565b600080600080600060a0868803121561301f57600080fd5b600061302b8888612db9565b955050602061303c88828901612ed4565b945050604061304d88828901612db9565b935050606061305e88828901612ed4565b925050608061306f88828901612db9565b9150509295509295909350565b60006020828403121561308e57600080fd5b813567ffffffffffffffff8111156130a557600080fd5b61211184828501612dcf565b600080604083850312156130c457600080fd5b823567ffffffffffffffff8111156130db57600080fd5b6130e785828601612dcf565b9250506020612fb085828601612db9565b60008060006060848603121561310d57600080fd5b833567ffffffffffffffff81111561312457600080fd5b61313086828701612dcf565b935050602061314186828701612ed4565b925050604084013567ffffffffffffffff81111561315e57600080fd5b612ffd86828701612eea565b60006020828403121561317c57600080fd5b813567ffffffffffffffff81111561319357600080fd5b61211184828501612e4e565b600080604083850312156131b257600080fd5b823567ffffffffffffffff8111156131c957600080fd5b612f9f85828601612e4e565b6000602082840312156131e757600080fd5b60006121118484612ebe565b60006020828403121561320557600080fd5b60006121118484612ec9565b60006020828403121561322357600080fd5b60006121118484612edf565b600080600080600060a0868803121561324757600080fd5b60006132538888612ed4565b955050602061326488828901612db9565b945050604061327588828901612ed4565b935050606061328688828901612db9565b925050608061306f88828901612ed4565b600080600080600060a086880312156132af57600080fd5b60006132bb8888612ed4565b95505060206132cc88828901612ed4565b94505060406132dd88828901612ed4565b935050606061328688828901612ed4565b60008060006060848603121561330357600080fd5b600061330f8686612ed4565b9350506020612fec86828701612ed4565b60006020828403121561333257600080fd5b60006121118484612f39565b60006020828403121561335057600080fd5b60006121118484612ed4565b6000806040838503121561336f57600080fd5b6000612f9f8585612ed4565b6000806000806080858703121561339157600080fd5b600061339d8787612ed4565b94505060206133ae87828801612ed4565b93505060406133bf87828801612ed4565b92505060606133d087828801612ed4565b91505092959194509250565b60006133e88383613be5565b505060400190565b60006133fc838361351a565b505060200190565b61340d816140fc565b82525050565b61340d816140db565b6000613427826140c2565b61343181856140c6565b935061343c836140bc565b8060005b8381101561346a57815161345488826133dc565b975061345f836140bc565b925050600101613440565b509495945050505050565b6000613480826140c2565b61348a81856140c6565b9350613495836140bc565b8060005b8381101561346a5781516134ad88826133f0565b97506134b8836140bc565b925050600101613499565b60006134ce826140c2565b6134d8818561176b565b93506134e3836140bc565b8060005b8381101561346a5781516134fb88826133f0565b9750613506836140bc565b9250506001016134e7565b61340d816140e6565b61340d81611520565b61340d61352f82611520565b611520565b600061353f826140c2565b613549818561176b565b9350613559818560208601614113565b9290920192915050565b600061357060118361176b565b70424950303334302f6368616c6c656e676560781b815260110192915050565b600061359d600d836140c6565b6c30b2323932b9b99032b93937b960991b815260200192915050565b60006135c6600d836140c6565b6c6d696e7420697320706175736560981b815260200192915050565b60006135ef600a836140c6565b6906d757374206e6f7420360b41b815260200192915050565b6000613615601c836140c6565b7f6d697373696e672074617267657420746f6b656e206164647265737300000000815260200192915050565b600061364e60118361176b565b70135d54da59c818dbd959999a58da595b9d607a1b815260110192915050565b600061367b6026836140c6565b7f4f776e61626c653a206e6577206f776e657220697320746865207a65726f206181526564647265737360d01b602082015260400192915050565b60006136c36009836140c6565b6806d75737420677420360bc1b815260200192915050565b60006136e86029836140c6565b7f6f6e6c792063726f7373466163746f72792061646d696e2063616e206368616e815268676520627261696e7360b81b602082015260400192915050565b6000613733601f836140c6565b7f5361666554524332303a2063616c6c20746f206e6f6e2d636f6e747261637400815260200192915050565b600061376c601c836140c6565b7f76616c7565206d7573742062652067726561746572207468616e203000000000815260200192915050565b60006137a56026836140c6565b7f6f726967696e20636861696e206964206d75737420626520677265617465722081526507468616e20360d41b602082015260400192915050565b60006137ed601b836140c6565b7f636861696e4964206d7573742067726561746572207468616e20300000000000815260200192915050565b60006138266004836140c6565b636c6f636b60e01b815260200192915050565b6000613846601d836140c6565b7f616d6f756e74206d7573742062652067726561746572207468616e2030000000815260200192915050565b600061387f6020836140c6565b7f4f776e61626c653a2063616c6c6572206973206e6f7420746865206f776e6572815260200192915050565b60006138b8600e836140c6565b6d1b1bd8dac81a5cc81c185d5cd95960921b815260200192915050565b60006138e2602a836140c6565b7f5361666554524332303a205452433230206f7065726174696f6e20646964206e8152691bdd081cdd58d8d9595960b21b602082015260400192915050565b600061392e6015836140c6565b7418da185b99d9481b9bdd08185d5d1a1bdc9a5e9959605a1b815260200192915050565b600061395f6020836140c6565b7f5361666554524332303a206c6f772d6c6576656c2063616c6c206661696c6564815260200192915050565b60006139986026836140c6565b7f74617267657420636861696e206964206d75737420626520677265617465722081526507468616e20360d41b602082015260400192915050565b60006139e06004836140c6565b631b5a5b9d60e21b815260200192915050565b6000613a006017836140c6565b7f6e6f646520616464726573732069732065786973746564000000000000000000815260200192915050565b6000613a396018836140c6565b7f6d697373696e6720726563656976656420616464726573730000000000000000815260200192915050565b6000613a726020836140c6565b7f72656365697665642061646472657373206d75737420626520656e7465726564815260200192915050565b8054610160830190613aaf81614152565b613ab9858261351a565b50506001820154613ac981614152565b613ad6602086018261351a565b50506002820154613ae681614152565b613af3604086018261351a565b50506003820154613b038161413f565b613b106060860182613413565b50506004820154613b208161413f565b613b2d6080860182613413565b50506005820154613b3d81614152565b613b4a60a086018261351a565b50506006820154613b5a8161413f565b613b6760c0860182613413565b50506007820154613b778161413f565b613b8460e0860182613413565b50506008820154613b9481614152565b613ba261010086018261351a565b50506009820154613bb281614152565b613bc061012086018261351a565b5050600a820154613bd081614152565b613bde61014086018261351a565b5050505050565b80516040830190613bf6848261351a565b5060208201516121ca6020850182613413565b61340d613c15826140f6565b614160565b60006119d582846134c3565b6000613c328286613523565b602082019150613c428285613523565b602082019150613c528284613523565b506020019392505050565b6000613c698287613523565b602082019150613c798286613c09565b600182019150613c898285613523565b602082019150613c998284613523565b50602001949350505050565b60006119d58284613534565b600061162782613563565b600061162782613641565b6000613cd38286613523565b602082019150613ce38285613523565b602082019150613cf38284613534565b95945050505050565b6000613d088287613523565b602082019150613d188286613523565b602082019150613d288285613523565b602082019150613d388284613534565b9695505050505050565b602081016116278284613413565b602081016116278284613404565b60608101613d6c8286613413565b613d796020830185613413565b612111604083018461351a565b60408101613d948285613413565b6119d5602083018461351a565b602080825281016119d5818461341c565b602080825281016119d58184613475565b602081016116278284613511565b60408101613d948285613511565b6020808252810161162781613590565b60208082528101611627816135b9565b60208082528101611627816135e2565b6020808252810161162781613608565b602080825281016116278161366e565b60208082528101611627816136b6565b60208082528101611627816136db565b6020808252810161162781613726565b602080825281016116278161375f565b6020808252810161162781613798565b60208082528101611627816137e0565b6020808252810161162781613839565b6020808252810161162781613872565b60208082528101611627816138ab565b60208082528101611627816138d5565b6020808252810161162781613921565b6020808252810161162781613952565b602080825281016116278161398b565b60208082528101611627816139f3565b6020808252810161162781613a2c565b6020808252810161162781613a65565b6101808101613f3e8284613a9e565b8181036101608301526119d581613819565b6101808101613f5f8284613a9e565b8181036101608301526119d5816139d3565b60208101611627828461351a565b60408101613f8d828561351a565b6119d56020830184613413565b60408101613d94828561351a565b6101608101613fb7828e61351a565b613fc4602083018d61351a565b613fd1604083018c61351a565b613fde606083018b613413565b613feb608083018a613413565b613ff860a083018961351a565b61400560c0830188613413565b61401260e0830187613413565b61402061010083018661351a565b61402e61012083018561351a565b61403c61014083018461351a565b9c9b505050505050505050505050565b60405181810167ffffffffffffffff8111828210171561406b57600080fd5b604052919050565b600067ffffffffffffffff82111561408a57600080fd5b5060209081020190565b600067ffffffffffffffff8211156140ab57600080fd5b506020601f91909101601f19160190565b60200190565b5190565b90815260200190565b6001600160a01b031690565b6000611627826140cf565b151590565b6000611627826140db565b60ff1690565b6000611627826140eb565b82818337506000910152565b60005b8381101561412e578181015183820152602001614116565b838111156121ca5750506000910152565b600061162761414d83611520565b6140cf565b600061162761352f83611520565b60006116278260f81b90565b614175816140db565b8114610dd557600080fd5b614175816140e6565b61417581611520565b614175816140eb56fea365627a7a723158206a5f2d48804e85883f32c30c6ad58f098fffcf7feec60f9acf1b6c0e69d3cbc76c6578706572696d656e74616cf564736f6c63430005100040",
  "source": "pragma solidity ^0.5.8;\r\npragma experimental ABIEncoderV2;\r\n\r\nimport \"./SchnorrVerifier.sol\";\r\nimport \"./Ownable.sol\";\r\nimport \"./CrossStorage.sol\";\r\nimport \"./CrossDelegate.sol\";\r\n\r\ncontract CrossChain is Ownable, SchnorrVerifier, CrossStorage {\r\n    using SafeMath for uint256;\r\n    using SafeTRC20 for ITRC20;\r\n\r\n    event Cross2(CrossData data, string crossType);\r\n    // event Cross(address fromToken, uint chainId, address targetToken, uint256 amount , address received, string crossType, bytes32 message);\r\n    event Rescue(address indexed dst, uint sad);\r\n    event RescueToken(address indexed dst, address indexed token, uint sad);\r\n\r\n    event AddNode(address nodeAddress_);\r\n    event DeleteNode(address nodeAddress_);\r\n\r\n    event NewApplyFactor(uint oldApplyFactorMantisa, uint applyFactorMantisa);\r\n\r\n    constructor() public {\r\n\r\n    }\r\n\r\n\r\n    function _become(CrossDelegate crossDelegate) public {\r\n        require(msg.sender == crossDelegate._admin(), \"only crossFactory admin can change brains\");\r\n        require(crossDelegate._acceptImplementation() == 0, \"change not authorized\");\r\n    }\r\n\r\n    function _setChainId(uint chainId) public returns (bool){\r\n        require(chainId > 0, \"chainId must greater than 0\");\r\n        _chainId = chainId;\r\n        return true;\r\n    }\r\n\r\n    function _setMinApplyFactorMantisa(uint newApplyFactorMantisa) public onlyOwner returns (bool){\r\n        uint oldApplyFactorMantisa = applyFactorMantisa;\r\n        applyFactorMantisa = newApplyFactorMantisa;\r\n        emit NewApplyFactor(oldApplyFactorMantisa, applyFactorMantisa);\r\n        return true;\r\n    }\r\n\r\n    function _setLockPause(bool state) public onlyOwner returns (bool){\r\n        lockPause = state;\r\n        return lockPause;\r\n    }\r\n\r\n    function _setMintPause(bool state) public onlyOwner returns (bool){\r\n        mintPause = state;\r\n        return mintPause;\r\n    }\r\n\r\n    function getNodeList() public view returns (NodeItem[] memory){\r\n        return nodeList;\r\n    }\r\n\r\n\r\n    function addNodeItem(address nodeAddress_, uint256 publicKey) public onlyOwner returns (bool){\r\n        for (uint i = 0; i < nodeList.length; i++) {\r\n            if (nodeList[i].nodeAddress == nodeAddress_) {\r\n                revert(\"node address is existed\");\r\n            }\r\n        }\r\n\r\n        NodeItem memory nodeItem = NodeItem({publicKey : publicKey, nodeAddress : nodeAddress_});\r\n        nodeList.push(nodeItem);\r\n\r\n        emit AddNode(nodeAddress_);\r\n        return true;\r\n    }\r\n\r\n    function deleteNodeItem(address nodeAddress_) public onlyOwner returns (bool){\r\n        uint len = nodeList.length;\r\n        uint assetIndex = len;\r\n        for (uint i = 0; i < len; i++) {\r\n            if (nodeList[i].nodeAddress == nodeAddress_) {\r\n                assetIndex = i;\r\n                break;\r\n            }\r\n        }\r\n\r\n        //is in or not\r\n        assert(assetIndex < len);\r\n\r\n        nodeList[assetIndex] = nodeList[len - 1];\r\n        nodeList.length--;\r\n\r\n        emit DeleteNode(nodeAddress_);\r\n        return true;\r\n    }\r\n\r\n\r\n    function filterNodeList() internal view returns (address[] memory){\r\n        uint len = nodeList.length;\r\n        address[] memory nodeAddress = new address[](len);\r\n        for (uint i = 0; i < len; i++) {\r\n            nodeAddress[i] = nodeList[i].nodeAddress;\r\n        }\r\n        return (nodeAddress);\r\n    }\r\n\r\n    function getPublicKeyByAddress(address nodeAddress_) public view returns (bool, uint256){\r\n        uint len = nodeList.length;\r\n        uint256 publicKey;\r\n        bool isExist = false;\r\n        for (uint i = 0; i < len; i++) {\r\n            if (nodeList[i].nodeAddress == nodeAddress_) {\r\n                publicKey = nodeList[i].publicKey;\r\n                isExist = true;\r\n                break;\r\n            }\r\n        }\r\n        return (isExist, publicKey);\r\n    }\r\n\r\n    function getPublicKeysByConfig(address[] memory nodeArr) public view returns (uint256[] memory){\r\n        uint len = nodeArr.length;\r\n        uint256[] memory publicKeys = new uint256[](len);\r\n        for (uint i = 0; i < len; i++) {\r\n            (bool isExist, uint256 publicKey) = getPublicKeyByAddress(nodeArr[i]);\r\n            if (isExist) {\r\n                publicKeys[i] = publicKey;\r\n            }\r\n        }\r\n        return (publicKeys);\r\n    }\r\n\r\n    function bytesToBytes32(bytes memory b, uint offset) internal pure returns (bytes32) {\r\n        bytes32 out;\r\n        for (uint i = 0; i < 32; i++) {\r\n            out |= bytes32(b[offset + i] & 0xFF) >> (i * 8);\r\n        }\r\n        return out;\r\n    }\r\n\r\n    function getCombinePubkey(address[] memory nodeArr) public view returns (uint256, uint256){\r\n        uint256[] memory publicKeys = getPublicKeysByConfig(nodeArr);\r\n        return SchnorrVerifier.getCombinePubkey(publicKeys);\r\n    }\r\n\r\n    /**\r\n     * @notice Lock asset in origin contract.\r\n     * @param  fromToken of the original chain, if it is empty, it represents the chain coin.\r\n     * @param  targetChainId is a custom target chain id\r\n     * @param  targetToken of the target chain, if it is empty, it represents the chain coin.\r\n     * @param  amount refers to the number of tokens transferred\r\n     * @param  received refers to the recipient's account address\r\n     */\r\n    function lock(address fromToken, uint256 targetChainId, address targetToken, uint256 amount, address received) payable public returns (bool success){\r\n        require(lockPause == false, 'lock is paused');\r\n        require(targetChainId > 0, 'target chain id must be greater than 0');\r\n        require(received != address(0x0), 'missing received address');\r\n        uint tempAmount;\r\n\r\n        if (fromToken != address(0x0)) {\r\n            require(amount > 0, 'amount must be greater than 0');\r\n            ITRC20 tokenAddr = ITRC20(fromToken);\r\n            tokenAddr.safeTransferFrom(msg.sender, address(this), amount);\r\n            tempAmount = amount;\r\n        } else {\r\n            require(targetToken != address(0x0), 'missing target token address');\r\n            require(msg.value > 0, 'value must be greater than 0');\r\n            tempAmount = msg.value;\r\n        }\r\n\r\n        _nonce++;\r\n        crossData = CrossData(_nonce, _chainId, targetChainId, fromToken, targetToken, tempAmount, msg.sender, received, bytes32(0), 1, now);\r\n        accountCrossList[msg.sender].lastCrossNonce = _nonce;\r\n        accountCrossList[msg.sender].crossList.push(_nonce);\r\n        allStoreList[_nonce] = crossData;\r\n\r\n        // emit Cross(fromToken, targetChainId, targetToken, amount, received, 'lock', bytes32(0));\r\n        emit Cross2(crossData, 'lock');\r\n\r\n        return true;\r\n    }\r\n\r\n    /**\r\n     * @notice The contract sends the number of tokens to the recipient's account on the target chain\r\n     * @param  message is the transaction hash of the original chain\r\n     * @param  targetToken of the target chain, if it is empty, it represents the chain coin.\r\n     * @param  amount refers to the number of tokens transferred\r\n     * @param  received refers to the recipient's account address\r\n     * @param  fromChainId is a origin chain id\r\n     */\r\n    function mint(bytes32 message, address targetToken, uint amount, address payable received, uint fromChainId) public returns (bool success){\r\n        require(mintPause == false, 'mint is pause');\r\n        require(received != address(0x0), \"received address must be entered\");\r\n        require(amount > 0, \"amount must be greater than 0\");\r\n        require(fromChainId > 0, \"origin chain id must be greater than 0\");\r\n\r\n        address[] memory nodeAddress = filterNodeList();\r\n        bool isExist = Search.indexOfAddress(nodeAddress, msg.sender);\r\n        require(isExist == true, 'address error');\r\n\r\n        if (targetToken != address(0x0)) {\r\n            ITRC20 tokenAddr = ITRC20(targetToken);\r\n            tokenAddr.safeTransfer(received, amount);\r\n        } else {\r\n            received.transfer(amount);\r\n        }\r\n\r\n        // require(nodeArr.length * mantisa > nodeList.length * applyFactorMantisa , 'apply number error');\r\n        // step1 - verify first\r\n        // bool res = verifySign(nodeArr, message, sign);\r\n        // require(res == true,'sign error');\r\n        // step2 - mint transfer\r\n\r\n        _nonce++;\r\n        crossData = CrossData(_nonce, fromChainId, _chainId, address(0), targetToken, amount, msg.sender, received, message, 2, now);\r\n        accountCrossList[received].lastCrossNonce = _nonce;\r\n        accountCrossList[received].crossList.push(_nonce);\r\n        allStoreList[_nonce] = crossData;\r\n\r\n        emit Cross2(crossData, 'mint');\r\n        // emit Cross(address(0), fromChainId, targetToken, amount, received, 'mint', message);\r\n\r\n        return true;\r\n    }\r\n\r\n    /**\r\n     * @notice update cross state\r\n     */\r\n    function updateState(uint nonce, uint state) public onlyOwner returns (bool) {\r\n        allStoreList[nonce].state = state;\r\n        return true;\r\n    }\r\n\r\n    /**\r\n     * @notice verify signature\r\n     */\r\n    function verifySign(address[] memory nodeArr, bytes32 message, bytes memory sign) public view returns (bool){\r\n        bytes32 r = bytesToBytes32(sign, 0);\r\n        bytes32 s = bytesToBytes32(sign, 32);\r\n        (uint256 px,) = getCombinePubkey(nodeArr);\r\n        (, uint256 py) = Curve.FindYforX(px);\r\n        return SchnorrVerifier.verify(r, s, bytes32(px), bytes32(py), message);\r\n    }\r\n\r\n    /**\r\n     * @notice rescue simple transfered eth.\r\n     */\r\n    function rescue(address payable to_, uint256 amount_) external onlyOwner {\r\n        require(to_ != address(0), \"must not 0\");\r\n        require(amount_ > 0, \"must gt 0\");\r\n\r\n        to_.transfer(amount_);\r\n        emit Rescue(to_, amount_);\r\n    }\r\n\r\n    /**\r\n     * @notice rescue simple transfered unrelated token.\r\n     */\r\n    function rescueToken(address to_, ITRC20 token_, uint256 amount_) external onlyOwner {\r\n        require(to_ != address(0), \"must not 0\");\r\n        require(amount_ > 0, \"must gt 0\");\r\n\r\n        token_.transfer(to_, amount_);\r\n        emit RescueToken(to_, address(token_), amount_);\r\n    }\r\n\r\n    /**\r\n     * @notice get token balance\r\n     */\r\n    function getBalanceOf(address token) view public returns (uint256 balance){\r\n        ITRC20 tokenAddr = ITRC20(token);\r\n        return tokenAddr.balanceOf(address(this));\r\n    }\r\n\r\n    /**\r\n     * @dev Delegates execution to an implementation contract.\r\n     * It returns to the external caller whatever the implementation returns\r\n     * or forwards reverts.\r\n     */\r\n    function() external payable {}\r\n}",
  "sourcePath": "D:\\GolandProjects\\maraLink\\trunk\\contract\\contracts\\CrossChain.sol",
  "compiler": {
    "name": "solc",
    "version": "0.5.16+commit.9c3226ce.Emscripten.clang"
  },
  "schemaVersion": "3.4.3",
  "updatedAt": "2021-10-18T09:49:20.862Z",
  "devdoc": {
    "methods": {
      "lock(address,uint256,address,uint256,address)": {
        "params": {
          "amount": "refers to the number of tokens transferred",
          "fromToken": "of the original chain, if it is empty, it represents the chain coin.",
          "received": "refers to the recipient's account address",
          "targetChainId": "is a custom target chain id",
          "targetToken": "of the target chain, if it is empty, it represents the chain coin."
        }
      },
      "mint(bytes32,address,uint256,address,uint256)": {
        "params": {
          "amount": "refers to the number of tokens transferred",
          "fromChainId": "is a origin chain id",
          "message": "is the transaction hash of the original chain",
          "received": "refers to the recipient's account address",
          "targetToken": "of the target chain, if it is empty, it represents the chain coin."
        }
      }
    }
  },
  "userdoc": {
    "methods": {
      "getBalanceOf(address)": {
        "notice": "get token balance"
      },
      "lock(address,uint256,address,uint256,address)": {
        "notice": "Lock asset in origin contract."
      },
      "mint(bytes32,address,uint256,address,uint256)": {
        "notice": "The contract sends the number of tokens to the recipient's account on the target chain"
      },
      "rescue(address,uint256)": {
        "notice": "rescue simple transfered eth."
      },
      "rescueToken(address,address,uint256)": {
        "notice": "rescue simple transfered unrelated token."
      },
      "updateState(uint256,uint256)": {
        "notice": "update cross state"
      },
      "verifySign(address[],bytes32,bytes)": {
        "notice": "verify signature"
      }
    }
  }
}