{
  "contractName": "GovernorAlpha",
  "abi": [
    {
      "inputs": [
        {
          "internalType": "address",
          "name": "timelock_",
          "type": "address"
        },
        {
          "internalType": "address",
          "name": "comp_",
          "type": "address"
        },
        {
          "internalType": "address",
          "name": "guardian_",
          "type": "address"
        }
      ],
      "payable": false,
      "stateMutability": "nonpayable",
      "type": "constructor"
    },
    {
      "anonymous": false,
      "inputs": [
        {
          "indexed": false,
          "internalType": "uint256",
          "name": "id",
          "type": "uint256"
        }
      ],
      "name": "ProposalCanceled",
      "type": "event"
    },
    {
      "anonymous": false,
      "inputs": [
        {
          "indexed": false,
          "internalType": "uint256",
          "name": "id",
          "type": "uint256"
        },
        {
          "indexed": false,
          "internalType": "address",
          "name": "proposer",
          "type": "address"
        },
        {
          "indexed": false,
          "internalType": "address[]",
          "name": "targets",
          "type": "address[]"
        },
        {
          "indexed": false,
          "internalType": "uint256[]",
          "name": "values",
          "type": "uint256[]"
        },
        {
          "indexed": false,
          "internalType": "string[]",
          "name": "signatures",
          "type": "string[]"
        },
        {
          "indexed": false,
          "internalType": "bytes[]",
          "name": "calldatas",
          "type": "bytes[]"
        },
        {
          "indexed": false,
          "internalType": "uint256",
          "name": "startBlock",
          "type": "uint256"
        },
        {
          "indexed": false,
          "internalType": "uint256",
          "name": "endBlock",
          "type": "uint256"
        },
        {
          "indexed": false,
          "internalType": "string",
          "name": "description",
          "type": "string"
        }
      ],
      "name": "ProposalCreated",
      "type": "event"
    },
    {
      "anonymous": false,
      "inputs": [
        {
          "indexed": false,
          "internalType": "uint256",
          "name": "id",
          "type": "uint256"
        }
      ],
      "name": "ProposalExecuted",
      "type": "event"
    },
    {
      "anonymous": false,
      "inputs": [
        {
          "indexed": false,
          "internalType": "uint256",
          "name": "id",
          "type": "uint256"
        },
        {
          "indexed": false,
          "internalType": "uint256",
          "name": "eta",
          "type": "uint256"
        }
      ],
      "name": "ProposalQueued",
      "type": "event"
    },
    {
      "anonymous": false,
      "inputs": [
        {
          "indexed": false,
          "internalType": "address",
          "name": "voter",
          "type": "address"
        },
        {
          "indexed": false,
          "internalType": "uint256",
          "name": "proposalId",
          "type": "uint256"
        },
        {
          "indexed": false,
          "internalType": "bool",
          "name": "support",
          "type": "bool"
        },
        {
          "indexed": false,
          "internalType": "uint256",
          "name": "votes",
          "type": "uint256"
        }
      ],
      "name": "VoteCast",
      "type": "event"
    },
    {
      "constant": true,
      "inputs": [],
      "name": "BALLOT_TYPEHASH",
      "outputs": [
        {
          "internalType": "bytes32",
          "name": "",
          "type": "bytes32"
        }
      ],
      "payable": false,
      "stateMutability": "view",
      "type": "function"
    },
    {
      "constant": true,
      "inputs": [],
      "name": "DOMAIN_TYPEHASH",
      "outputs": [
        {
          "internalType": "bytes32",
          "name": "",
          "type": "bytes32"
        }
      ],
      "payable": false,
      "stateMutability": "view",
      "type": "function"
    },
    {
      "constant": true,
      "inputs": [],
      "name": "comp",
      "outputs": [
        {
          "internalType": "contract CompInterface",
          "name": "",
          "type": "address"
        }
      ],
      "payable": false,
      "stateMutability": "view",
      "type": "function"
    },
    {
      "constant": true,
      "inputs": [],
      "name": "guardian",
      "outputs": [
        {
          "internalType": "address",
          "name": "",
          "type": "address"
        }
      ],
      "payable": false,
      "stateMutability": "view",
      "type": "function"
    },
    {
      "constant": true,
      "inputs": [
        {
          "internalType": "address",
          "name": "",
          "type": "address"
        }
      ],
      "name": "latestProposalIds",
      "outputs": [
        {
          "internalType": "uint256",
          "name": "",
          "type": "uint256"
        }
      ],
      "payable": false,
      "stateMutability": "view",
      "type": "function"
    },
    {
      "constant": true,
      "inputs": [],
      "name": "name",
      "outputs": [
        {
          "internalType": "string",
          "name": "",
          "type": "string"
        }
      ],
      "payable": false,
      "stateMutability": "view",
      "type": "function"
    },
    {
      "constant": true,
      "inputs": [],
      "name": "proposalCount",
      "outputs": [
        {
          "internalType": "uint256",
          "name": "",
          "type": "uint256"
        }
      ],
      "payable": false,
      "stateMutability": "view",
      "type": "function"
    },
    {
      "constant": true,
      "inputs": [
        {
          "internalType": "uint256",
          "name": "",
          "type": "uint256"
        }
      ],
      "name": "proposals",
      "outputs": [
        {
          "internalType": "uint256",
          "name": "id",
          "type": "uint256"
        },
        {
          "internalType": "address",
          "name": "proposer",
          "type": "address"
        },
        {
          "internalType": "uint256",
          "name": "eta",
          "type": "uint256"
        },
        {
          "internalType": "uint256",
          "name": "startBlock",
          "type": "uint256"
        },
        {
          "internalType": "uint256",
          "name": "endBlock",
          "type": "uint256"
        },
        {
          "internalType": "uint256",
          "name": "forVotes",
          "type": "uint256"
        },
        {
          "internalType": "uint256",
          "name": "againstVotes",
          "type": "uint256"
        },
        {
          "internalType": "bool",
          "name": "canceled",
          "type": "bool"
        },
        {
          "internalType": "bool",
          "name": "executed",
          "type": "bool"
        }
      ],
      "payable": false,
      "stateMutability": "view",
      "type": "function"
    },
    {
      "constant": true,
      "inputs": [],
      "name": "timelock",
      "outputs": [
        {
          "internalType": "contract TimelockInterface",
          "name": "",
          "type": "address"
        }
      ],
      "payable": false,
      "stateMutability": "view",
      "type": "function"
    },
    {
      "constant": true,
      "inputs": [],
      "name": "quorumVotes",
      "outputs": [
        {
          "internalType": "uint256",
          "name": "",
          "type": "uint256"
        }
      ],
      "payable": false,
      "stateMutability": "pure",
      "type": "function"
    },
    {
      "constant": true,
      "inputs": [],
      "name": "proposalThreshold",
      "outputs": [
        {
          "internalType": "uint256",
          "name": "",
          "type": "uint256"
        }
      ],
      "payable": false,
      "stateMutability": "pure",
      "type": "function"
    },
    {
      "constant": true,
      "inputs": [],
      "name": "proposalMaxOperations",
      "outputs": [
        {
          "internalType": "uint256",
          "name": "",
          "type": "uint256"
        }
      ],
      "payable": false,
      "stateMutability": "pure",
      "type": "function"
    },
    {
      "constant": true,
      "inputs": [],
      "name": "votingDelay",
      "outputs": [
        {
          "internalType": "uint256",
          "name": "",
          "type": "uint256"
        }
      ],
      "payable": false,
      "stateMutability": "pure",
      "type": "function"
    },
    {
      "constant": true,
      "inputs": [],
      "name": "votingPeriod",
      "outputs": [
        {
          "internalType": "uint256",
          "name": "",
          "type": "uint256"
        }
      ],
      "payable": false,
      "stateMutability": "pure",
      "type": "function"
    },
    {
      "constant": false,
      "inputs": [
        {
          "internalType": "address[]",
          "name": "targets",
          "type": "address[]"
        },
        {
          "internalType": "uint256[]",
          "name": "values",
          "type": "uint256[]"
        },
        {
          "internalType": "string[]",
          "name": "signatures",
          "type": "string[]"
        },
        {
          "internalType": "bytes[]",
          "name": "calldatas",
          "type": "bytes[]"
        },
        {
          "internalType": "string",
          "name": "description",
          "type": "string"
        }
      ],
      "name": "propose",
      "outputs": [
        {
          "internalType": "uint256",
          "name": "",
          "type": "uint256"
        }
      ],
      "payable": false,
      "stateMutability": "nonpayable",
      "type": "function"
    },
    {
      "constant": false,
      "inputs": [
        {
          "internalType": "uint256",
          "name": "proposalId",
          "type": "uint256"
        }
      ],
      "name": "queue",
      "outputs": [],
      "payable": false,
      "stateMutability": "nonpayable",
      "type": "function"
    },
    {
      "constant": false,
      "inputs": [
        {
          "internalType": "uint256",
          "name": "proposalId",
          "type": "uint256"
        }
      ],
      "name": "execute",
      "outputs": [],
      "payable": true,
      "stateMutability": "payable",
      "type": "function"
    },
    {
      "constant": false,
      "inputs": [
        {
          "internalType": "uint256",
          "name": "proposalId",
          "type": "uint256"
        }
      ],
      "name": "cancel",
      "outputs": [],
      "payable": false,
      "stateMutability": "nonpayable",
      "type": "function"
    },
    {
      "constant": true,
      "inputs": [
        {
          "internalType": "uint256",
          "name": "proposalId",
          "type": "uint256"
        }
      ],
      "name": "getActions",
      "outputs": [
        {
          "internalType": "address[]",
          "name": "targets",
          "type": "address[]"
        },
        {
          "internalType": "uint256[]",
          "name": "values",
          "type": "uint256[]"
        },
        {
          "internalType": "string[]",
          "name": "signatures",
          "type": "string[]"
        },
        {
          "internalType": "bytes[]",
          "name": "calldatas",
          "type": "bytes[]"
        }
      ],
      "payable": false,
      "stateMutability": "view",
      "type": "function"
    },
    {
      "constant": true,
      "inputs": [
        {
          "internalType": "uint256",
          "name": "proposalId",
          "type": "uint256"
        },
        {
          "internalType": "address",
          "name": "voter",
          "type": "address"
        }
      ],
      "name": "getReceipt",
      "outputs": [
        {
          "components": [
            {
              "internalType": "bool",
              "name": "hasVoted",
              "type": "bool"
            },
            {
              "internalType": "bool",
              "name": "support",
              "type": "bool"
            },
            {
              "internalType": "uint96",
              "name": "votes",
              "type": "uint96"
            }
          ],
          "internalType": "struct GovernorAlpha.Receipt",
          "name": "",
          "type": "tuple"
        }
      ],
      "payable": false,
      "stateMutability": "view",
      "type": "function"
    },
    {
      "constant": true,
      "inputs": [
        {
          "internalType": "uint256",
          "name": "proposalId",
          "type": "uint256"
        }
      ],
      "name": "state",
      "outputs": [
        {
          "internalType": "enum GovernorAlpha.ProposalState",
          "name": "",
          "type": "uint8"
        }
      ],
      "payable": false,
      "stateMutability": "view",
      "type": "function"
    },
    {
      "constant": false,
      "inputs": [
        {
          "internalType": "uint256",
          "name": "proposalId",
          "type": "uint256"
        },
        {
          "internalType": "bool",
          "name": "support",
          "type": "bool"
        }
      ],
      "name": "castVote",
      "outputs": [],
      "payable": false,
      "stateMutability": "nonpayable",
      "type": "function"
    },
    {
      "constant": false,
      "inputs": [
        {
          "internalType": "uint256",
          "name": "proposalId",
          "type": "uint256"
        },
        {
          "internalType": "bool",
          "name": "support",
          "type": "bool"
        },
        {
          "internalType": "uint8",
          "name": "v",
          "type": "uint8"
        },
        {
          "internalType": "bytes32",
          "name": "r",
          "type": "bytes32"
        },
        {
          "internalType": "bytes32",
          "name": "s",
          "type": "bytes32"
        }
      ],
      "name": "castVoteBySig",
      "outputs": [],
      "payable": false,
      "stateMutability": "nonpayable",
      "type": "function"
    },
    {
      "constant": false,
      "inputs": [],
      "name": "__acceptAdmin",
      "outputs": [],
      "payable": false,
      "stateMutability": "nonpayable",
      "type": "function"
    },
    {
      "constant": false,
      "inputs": [],
      "name": "__abdicate",
      "outputs": [],
      "payable": false,
      "stateMutability": "nonpayable",
      "type": "function"
    },
    {
      "constant": false,
      "inputs": [
        {
          "internalType": "address",
          "name": "newPendingAdmin",
          "type": "address"
        },
        {
          "internalType": "uint256",
          "name": "eta",
          "type": "uint256"
        }
      ],
      "name": "__queueSetTimelockPendingAdmin",
      "outputs": [],
      "payable": false,
      "stateMutability": "nonpayable",
      "type": "function"
    },
    {
      "constant": false,
      "inputs": [
        {
          "internalType": "address",
          "name": "newPendingAdmin",
          "type": "address"
        },
        {
          "internalType": "uint256",
          "name": "eta",
          "type": "uint256"
        }
      ],
      "name": "__executeSetTimelockPendingAdmin",
      "outputs": [],
      "payable": false,
      "stateMutability": "nonpayable",
      "type": "function"
    }
  ],
  "bytecode": "0x60806040523480156200001157600080fd5b506040516200391b3803806200391b83398101604081905262000034916200008a565b600080546001600160a01b039485166001600160a01b0319918216179091556001805493851693821693909317909255600280549190931691161790556200010a565b80516200008481620000f0565b92915050565b600080600060608486031215620000a057600080fd5b6000620000ae868662000077565b9350506020620000c18682870162000077565b9250506040620000d48682870162000077565b9150509250925092565b60006001600160a01b03821662000084565b620000fb81620000de565b81146200010757600080fd5b50565b613801806200011a6000396000f3fe60806040526004361061019c5760003560e01c8063452a9320116100ec578063d33219b41161008a578063ddf0b00911610064578063ddf0b00914610463578063deaaa7cc14610483578063e23a9a5214610498578063fe0d94c1146104c55761019c565b8063d33219b414610419578063da35c6641461042e578063da95691a146104435761019c565b80637bdbe4d0116100c65780637bdbe4d0146103ba57806391500671146103cf578063b58131b0146103ef578063b9a61961146104045761019c565b8063452a9320146103635780634634c61f14610385578063760fbc13146103a55761019c565b806320606b7011610159578063328dd98211610133578063328dd982146102d15780633932abb1146103015780633e4f49e61461031657806340e58ee5146103435761019c565b806320606b701461028757806321f43e421461029c57806324bc1a64146102bc5761019c565b8063013cf08b146101a157806302a251a3146101df57806306fdde0314610201578063109d0af81461022357806315373e3d1461024557806317977c6114610267575b600080fd5b3480156101ad57600080fd5b506101c16101bc366004612447565b6104d8565b6040516101d6999897969594939291906135ac565b60405180910390f35b3480156101eb57600080fd5b506101f4610531565b6040516101d691906132d9565b34801561020d57600080fd5b50610216610538565b6040516101d69190613395565b34801561022f57600080fd5b5061023861056a565b6040516101d69190613379565b34801561025157600080fd5b50610265610260366004612495565b610579565b005b34801561027357600080fd5b506101f461028236600461228a565b610588565b34801561029357600080fd5b506101f461059a565b3480156102a857600080fd5b506102656102b73660046122b0565b6105b1565b3480156102c857600080fd5b506101f4610698565b3480156102dd57600080fd5b506102f16102ec366004612447565b6106a6565b6040516101d6949392919061328c565b34801561030d57600080fd5b506101f4610935565b34801561032257600080fd5b50610336610331366004612447565b61093a565b6040516101d69190613387565b34801561034f57600080fd5b5061026561035e366004612447565b610abc565b34801561036f57600080fd5b50610378610d25565b6040516101d69190613136565b34801561039157600080fd5b506102656103a03660046124c5565b610d34565b3480156103b157600080fd5b50610265610eca565b3480156103c657600080fd5b506101f4610f06565b3480156103db57600080fd5b506102656103ea3660046122b0565b610f0b565b3480156103fb57600080fd5b506101f4610fe0565b34801561041057600080fd5b50610265610fee565b34801561042557600080fd5b50610238611073565b34801561043a57600080fd5b506101f4611082565b34801561044f57600080fd5b506101f461045e3660046122ea565b611088565b34801561046f57600080fd5b5061026561047e366004612447565b6114aa565b34801561048f57600080fd5b506101f4611714565b3480156104a457600080fd5b506104b86104b3366004612465565b611720565b6040516101d691906134f6565b6102656104d3366004612447565b61178f565b6004602052600090815260409020805460018201546002830154600784015460088501546009860154600a870154600b9097015495966001600160a01b0390951695939492939192909160ff8082169161010090041689565b6143805b90565b604051806040016040528060168152602001754c656e6448756220476f7665726e6f7220416c70686160501b81525081565b6001546001600160a01b031681565b610584338383611954565b5050565b60056020526000908152604090205481565b6040516105a690613120565b604051809103902081565b6002546001600160a01b031633146105e45760405162461bcd60e51b81526004016105db906133d6565b60405180910390fd5b600080546040516001600160a01b0390911691630825f38f9183919061060e908790602001613136565b604051602081830303815290604052856040518563ffffffff1660e01b815260040161063d949392919061315f565b600060405180830381600087803b15801561065757600080fd5b505af115801561066b573d6000803e3d6000fd5b505050506040513d6000823e601f3d908101601f191682016040526106939190810190612412565b505050565b6954b40b1f852bda00000090565b6060806060806000600460008781526020019081526020016000209050806003018160040182600501836006018380548060200260200160405190810160405280929190818152602001828054801561072857602002820191906000526020600020905b81546001600160a01b0316815260019091019060200180831161070a575b505050505093508280548060200260200160405190810160405280929190818152602001828054801561077a57602002820191906000526020600020905b815481526020019060010190808311610766575b5050505050925081805480602002602001604051908101604052809291908181526020016000905b8282101561084d5760008481526020908190208301805460408051601f60026000196101006001871615020190941693909304928301859004850281018501909152818152928301828280156108395780601f1061080e57610100808354040283529160200191610839565b820191906000526020600020905b81548152906001019060200180831161081c57829003601f168201915b5050505050815260200190600101906107a2565b50505050915080805480602002602001604051908101604052809291908181526020016000905b8282101561091f5760008481526020908190208301805460408051601f600260001961010060018716150201909416939093049283018590048502810185019091528181529283018282801561090b5780601f106108e05761010080835404028352916020019161090b565b820191906000526020600020905b8154815290600101906020018083116108ee57829003601f168201915b505050505081526020019060010190610874565b5050505090509450945094509450509193509193565b600190565b6000816003541015801561094e5750600082115b61096a5760405162461bcd60e51b81526004016105db906133e6565b6000828152600460205260409020600b81015460ff161561098f576002915050610ab7565b806007015443116109a4576000915050610ab7565b806008015443116109b9576001915050610ab7565b80600a015481600901541115806109da57506109d3610698565b8160090154105b156109e9576003915050610ab7565b60028101546109fc576004915050610ab7565b600b810154610100900460ff1615610a18576007915050610ab7565b6002810154600054604080516360d143f160e11b81529051610aa193926001600160a01b03169163c1a287e2916004808301926020929190829003018186803b158015610a6457600080fd5b505afa158015610a78573d6000803e3d6000fd5b505050506040513d601f19601f82011682018060405250610a9c91908101906123f4565b611b1d565b4210610ab1576006915050610ab7565b60059150505b919050565b6000610ac78261093a565b90506007816007811115610ad757fe5b1415610af55760405162461bcd60e51b81526004016105db906134b6565b60008281526004602052604090206002546001600160a01b0316331480610bc05750610b1f610fe0565b60018054838201546001600160a01b039182169263782d6fe19290911690610b48904390611b49565b6040518363ffffffff1660e01b8152600401610b659291906131ae565b60206040518083038186803b158015610b7d57600080fd5b505afa158015610b91573d6000803e3d6000fd5b505050506040513d601f19601f82011682018060405250610bb5919081019061252d565b6001600160601b0316105b610bdc5760405162461bcd60e51b81526004016105db90613456565b600b8101805460ff1916600117905560005b6003820154811015610ce8576000546003830180546001600160a01b039092169163591fcdfe919084908110610c2057fe5b6000918252602090912001546004850180546001600160a01b039092169185908110610c4857fe5b9060005260206000200154856005018581548110610c6257fe5b90600052602060002001866006018681548110610c7b57fe5b9060005260206000200187600201546040518663ffffffff1660e01b8152600401610caa95949392919061324b565b600060405180830381600087803b158015610cc457600080fd5b505af1158015610cd8573d6000803e3d6000fd5b505060019092019150610bee9050565b507f789cf55be980739dad1d0699b93b58e806b51c9d96619bfa8fe0a28abaa7b30c83604051610d1891906132d9565b60405180910390a1505050565b6002546001600160a01b031681565b6000604051610d4290613120565b6040805191829003822082820190915260168252754c656e6448756220476f7665726e6f7220416c70686160501b6020909201919091527fb646d7d08297433b8bc11ebac4984ecce3a41a911624c43142102297d9f85c45610da2611b71565b30604051602001610db694939291906132e7565b6040516020818303038152906040528051906020012090506000604051610ddc9061312b565b604051908190038120610df5918990899060200161331c565b60405160208183030381529060405280519060200120905060008282604051602001610e229291906130ef565b604051602081830303815290604052805190602001209050600060018288888860405160008152602001604052604051610e5f9493929190613344565b6020604051602081039080840390855afa158015610e81573d6000803e3d6000fd5b5050604051601f1901519150506001600160a01b038116610eb45760405162461bcd60e51b81526004016105db90613496565b610ebf818a8a611954565b505050505050505050565b6002546001600160a01b03163314610ef45760405162461bcd60e51b81526004016105db906134e6565b600280546001600160a01b0319169055565b600a90565b6002546001600160a01b03163314610f355760405162461bcd60e51b81526004016105db90613416565b600080546040516001600160a01b0390911691633a66f90191839190610f5f908790602001613136565b604051602081830303815290604052856040518563ffffffff1660e01b8152600401610f8e949392919061315f565b602060405180830381600087803b158015610fa857600080fd5b505af1158015610fbc573d6000803e3d6000fd5b505050506040513d601f19601f8201168201806040525061069391908101906123f4565b69152d02c7e14af680000090565b6002546001600160a01b031633146110185760405162461bcd60e51b81526004016105db906133a6565b6000805460408051630e18b68160e01b815290516001600160a01b0390921692630e18b6819260048084019382900301818387803b15801561105957600080fd5b505af115801561106d573d6000803e3d6000fd5b50505050565b6000546001600160a01b031681565b60035481565b6000611092610fe0565b600180546001600160a01b03169063782d6fe19033906110b3904390611b49565b6040518363ffffffff1660e01b81526004016110d0929190613144565b60206040518083038186803b1580156110e857600080fd5b505afa1580156110fc573d6000803e3d6000fd5b505050506040513d601f19601f82011682018060405250611120919081019061252d565b6001600160601b0316116111465760405162461bcd60e51b81526004016105db90613486565b84518651148015611158575083518651145b8015611165575082518651145b6111815760405162461bcd60e51b81526004016105db90613446565b855161119f5760405162461bcd60e51b81526004016105db90613476565b6111a7610f06565b865111156111c75760405162461bcd60e51b81526004016105db90613426565b3360009081526005602052604090205480156112445760006111e88261093a565b905060018160078111156111f857fe5b14156112165760405162461bcd60e51b81526004016105db906134a6565b600081600781111561122457fe5b14156112425760405162461bcd60e51b81526004016105db90613406565b505b600061125243610a9c610935565b9050600061126282610a9c610531565b6003805460010190559050611275611cd4565b604051806101a001604052806003548152602001336001600160a01b03168152602001600081526020018b81526020018a815260200189815260200188815260200184815260200183815260200160008152602001600081526020016000151581526020016000151581525090508060046000836000015181526020019081526020016000206000820151816000015560208201518160010160006101000a8154816001600160a01b0302191690836001600160a01b03160217905550604082015181600201556060820151816003019080519060200190611358929190611d49565b5060808201518051611374916004840191602090910190611dae565b5060a08201518051611390916005840191602090910190611df5565b5060c082015180516113ac916006840191602090910190611e4e565b5060e082015181600701556101008201518160080155610120820151816009015561014082015181600a015561016082015181600b0160006101000a81548160ff02191690831515021790555061018082015181600b0160016101000a81548160ff02191690831515021790555090505080600001516005600083602001516001600160a01b03166001600160a01b03168152602001908152602001600020819055507f7d84a6263ae0d98d3329bd7b46bb4e8d6f98cd35a7adb45c274c8b7fd5ebd5e08160000151338c8c8c8c89898e60405161149299989796959493929190613504565b60405180910390a15193505050505b95945050505050565b60046114b58261093a565b60078111156114c057fe5b146114dd5760405162461bcd60e51b81526004016105db906133b6565b600081815260046020818152604080842084548251630d48571f60e31b815292519195946115329442946001600160a01b0390931693636a42b8f8938084019390829003018186803b158015610a6457600080fd5b905060005b60038301548110156116da576116d283600301828154811061155557fe5b6000918252602090912001546004850180546001600160a01b03909216918490811061157d57fe5b906000526020600020015485600501848154811061159757fe5b600091825260209182902001805460408051601f60026000196101006001871615020190941693909304928301859004850281018501909152818152928301828280156116255780601f106115fa57610100808354040283529160200191611625565b820191906000526020600020905b81548152906001019060200180831161160857829003601f168201915b505050505086600601858154811061163957fe5b600091825260209182902001805460408051601f60026000196101006001871615020190941693909304928301859004850281018501909152818152928301828280156116c75780601f1061169c576101008083540402835291602001916116c7565b820191906000526020600020905b8154815290600101906020018083116116aa57829003601f168201915b505050505086611b75565b600101611537565b50600282018190556040517f9a2e42fd6722813d69113e7d0079d3d940171428df7373df9c7f7617cfda289290610d189085908490613632565b6040516105a69061312b565b611728611ea7565b5060008281526004602090815260408083206001600160a01b0385168452600c018252918290208251606081018452905460ff80821615158352610100820416151592820192909252620100009091046001600160601b0316918101919091525b92915050565b600561179a8261093a565b60078111156117a557fe5b146117c25760405162461bcd60e51b81526004016105db906133c6565b6000818152600460205260408120600b8101805461ff001916610100179055905b6003820154811015611918576000546004830180546001600160a01b0390921691630825f38f91908490811061181557fe5b906000526020600020015484600301848154811061182f57fe5b6000918252602090912001546004860180546001600160a01b03909216918690811061185757fe5b906000526020600020015486600501868154811061187157fe5b9060005260206000200187600601878154811061188a57fe5b9060005260206000200188600201546040518763ffffffff1660e01b81526004016118b995949392919061324b565b6000604051808303818588803b1580156118d257600080fd5b505af11580156118e6573d6000803e3d6000fd5b50505050506040513d6000823e601f3d908101601f1916820160405261190f9190810190612412565b506001016117e3565b507f712ae1383f79ac853f8d882153778e0260ef8f03b504e2866e0593e04d2b291f8260405161194891906132d9565b60405180910390a15050565b600161195f8361093a565b600781111561196a57fe5b146119875760405162461bcd60e51b81526004016105db906134c6565b60008281526004602090815260408083206001600160a01b0387168452600c8101909252909120805460ff16156119d05760405162461bcd60e51b81526004016105db906133f6565b600154600783015460405163782d6fe160e01b81526000926001600160a01b03169163782d6fe191611a06918a916004016131ae565b60206040518083038186803b158015611a1e57600080fd5b505afa158015611a32573d6000803e3d6000fd5b505050506040513d601f19601f82011682018060405250611a56919081019061252d565b90508315611a7f57611a758360090154826001600160601b0316611b1d565b6009840155611a9c565b611a9683600a0154826001600160601b0316611b1d565b600a8401555b8154600160ff199091161761ff00191661010085151502176dffffffffffffffffffffffff00001916620100006001600160601b038316021782556040517f877856338e13f63d0c36822ff0ef736b80934cd90574a3a5bc9262c39d217c4690611b0d9088908890889086906131bc565b60405180910390a1505050505050565b600082820183811015611b425760405162461bcd60e51b81526004016105db90613436565b9392505050565b600082821115611b6b5760405162461bcd60e51b81526004016105db906134d6565b50900390565b4690565b6000546040516001600160a01b039091169063f2b0653790611ba390889088908890889088906020016131f1565b604051602081830303815290604052805190602001206040518263ffffffff1660e01b8152600401611bd591906132d9565b60206040518083038186803b158015611bed57600080fd5b505afa158015611c01573d6000803e3d6000fd5b505050506040513d601f19601f82011682018060405250611c2591908101906123d6565b15611c425760405162461bcd60e51b81526004016105db90613466565b600054604051633a66f90160e01b81526001600160a01b0390911690633a66f90190611c7a90889088908890889088906004016131f1565b602060405180830381600087803b158015611c9457600080fd5b505af1158015611ca8573d6000803e3d6000fd5b505050506040513d601f19601f82011682018060405250611ccc91908101906123f4565b505050505050565b604051806101a001604052806000815260200160006001600160a01b031681526020016000815260200160608152602001606081526020016060815260200160608152602001600081526020016000815260200160008152602001600081526020016000151581526020016000151581525090565b828054828255906000526020600020908101928215611d9e579160200282015b82811115611d9e57825182546001600160a01b0319166001600160a01b03909116178255602090920191600190910190611d69565b50611daa929150611ec7565b5090565b828054828255906000526020600020908101928215611de9579160200282015b82811115611de9578251825591602001919060010190611dce565b50611daa929150611eeb565b828054828255906000526020600020908101928215611e42579160200282015b82811115611e425782518051611e32918491602090910190611f05565b5091602001919060010190611e15565b50611daa929150611f72565b828054828255906000526020600020908101928215611e9b579160200282015b82811115611e9b5782518051611e8b918491602090910190611f05565b5091602001919060010190611e6e565b50611daa929150611f95565b604080516060810182526000808252602082018190529181019190915290565b61053591905b80821115611daa5780546001600160a01b0319168155600101611ecd565b61053591905b80821115611daa5760008155600101611ef1565b828054600181600116156101000203166002900490600052602060002090601f016020900481019282601f10611f4657805160ff1916838001178555611de9565b82800160010185558215611de95791820182811115611de9578251825591602001919060010190611dce565b61053591905b80821115611daa576000611f8c8282611fb8565b50600101611f78565b61053591905b80821115611daa576000611faf8282611fb8565b50600101611f9b565b50805460018160011615610100020316600290046000825580601f10611fde5750611ffc565b601f016020900490600052602060002090810190611ffc9190611eeb565b50565b803561178981613786565b600082601f83011261201b57600080fd5b813561202e61202982613667565b613640565b9150818183526020840193506020810190508385602084028201111561205357600080fd5b60005b8381101561207f57816120698882611fff565b8452506020928301929190910190600101612056565b5050505092915050565b600082601f83011261209a57600080fd5b81356120a861202982613667565b81815260209384019390925082018360005b8381101561207f57813586016120d088826121df565b84525060209283019291909101906001016120ba565b600082601f8301126120f757600080fd5b813561210561202982613667565b81815260209384019390925082018360005b8381101561207f578135860161212d88826121df565b8452506020928301929190910190600101612117565b600082601f83011261215457600080fd5b813561216261202982613667565b9150818183526020840193506020810190508385602084028201111561218757600080fd5b60005b8381101561207f578161219d88826121c9565b845250602092830192919091019060010161218a565b80356117898161379a565b80516117898161379a565b8035611789816137a3565b8051611789816137a3565b600082601f8301126121f057600080fd5b81356121fe61202982613688565b9150808252602083016020830185838301111561221a57600080fd5b61222583828461373a565b50505092915050565b600082601f83011261223f57600080fd5b815161224d61202982613688565b9150808252602083016020830185838301111561226957600080fd5b612225838284613746565b8035611789816137ac565b8051611789816137b5565b60006020828403121561229c57600080fd5b60006122a88484611fff565b949350505050565b600080604083850312156122c357600080fd5b60006122cf8585611fff565b92505060206122e0858286016121c9565b9150509250929050565b600080600080600060a0868803121561230257600080fd5b853567ffffffffffffffff81111561231957600080fd5b6123258882890161200a565b955050602086013567ffffffffffffffff81111561234257600080fd5b61234e88828901612143565b945050604086013567ffffffffffffffff81111561236b57600080fd5b612377888289016120e6565b935050606086013567ffffffffffffffff81111561239457600080fd5b6123a088828901612089565b925050608086013567ffffffffffffffff8111156123bd57600080fd5b6123c9888289016121df565b9150509295509295909350565b6000602082840312156123e857600080fd5b60006122a884846121be565b60006020828403121561240657600080fd5b60006122a884846121d4565b60006020828403121561242457600080fd5b815167ffffffffffffffff81111561243b57600080fd5b6122a88482850161222e565b60006020828403121561245957600080fd5b60006122a884846121c9565b6000806040838503121561247857600080fd5b600061248485856121c9565b92505060206122e085828601611fff565b600080604083850312156124a857600080fd5b60006124b485856121c9565b92505060206122e0858286016121b3565b600080600080600060a086880312156124dd57600080fd5b60006124e988886121c9565b95505060206124fa888289016121b3565b945050604061250b88828901612274565b935050606061251c888289016121c9565b92505060806123c9888289016121c9565b60006020828403121561253f57600080fd5b60006122a8848461227f565b60006125578383612586565b505060200190565b6000611b428383612728565b6000612557838361270e565b61258081613707565b82525050565b612580816136cf565b600061259a826136c2565b6125a481856136c6565b93506125af836136b0565b8060005b838110156125dd5781516125c7888261254b565b97506125d2836136b0565b9250506001016125b3565b509495945050505050565b60006125f3826136c2565b6125fd81856136c6565b93508360208202850161260f856136b0565b8060005b85811015612649578484038952815161262c858261255f565b9450612637836136b0565b60209a909a0199925050600101612613565b5091979650505050505050565b6000612661826136c2565b61266b81856136c6565b93508360208202850161267d856136b0565b8060005b85811015612649578484038952815161269a858261255f565b94506126a5836136b0565b60209a909a0199925050600101612681565b60006126c2826136c2565b6126cc81856136c6565b93506126d7836136b0565b8060005b838110156125dd5781516126ef888261256b565b97506126fa836136b0565b9250506001016126db565b612580816136da565b61258081610535565b61258061272382610535565b610535565b6000612733826136c2565b61273d81856136c6565b935061274d818560208601613746565b61275681613772565b9093019392505050565b60008154600181166000811461277d57600181146127a3576127e2565b607f600283041661278e81876136c6565b60ff19841681529550506020850192506127e2565b600282046127b181876136c6565b95506127bc856136b6565b60005b828110156127db578154888201526001909101906020016127bf565b8701945050505b505092915050565b6125808161370e565b61258081613719565b61258081613724565b60006128126039836136c6565b7f476f7665726e6f72416c7068613a3a5f5f61636365707441646d696e3a20736581527f6e646572206d75737420626520676f7620677561726469616e00000000000000602082015260400192915050565b60006128716044836136c6565b7f476f7665726e6f72416c7068613a3a71756575653a2070726f706f73616c206381527f616e206f6e6c79206265207175657565642069662069742069732073756363656020820152631959195960e21b604082015260600192915050565b60006128dd6045836136c6565b7f476f7665726e6f72416c7068613a3a657865637574653a2070726f706f73616c81527f2063616e206f6e6c7920626520657865637574656420696620697420697320716020820152641d595d595960da1b604082015260600192915050565b600061294a600283610ab7565b61190160f01b815260020192915050565b6000612968604c836136c6565b7f476f7665726e6f72416c7068613a3a5f5f6578656375746553657454696d656c81527f6f636b50656e64696e6741646d696e3a2073656e646572206d7573742062652060208201526b33b7bb1033bab0b93234b0b760a11b604082015260600192915050565b60006129dc6018836136c6565b7f73657450656e64696e6741646d696e2861646472657373290000000000000000815260200192915050565b6000612a156029836136c6565b7f476f7665726e6f72416c7068613a3a73746174653a20696e76616c69642070728152681bdc1bdcd85b081a5960ba1b602082015260400192915050565b6000612a60602d836136c6565b7f476f7665726e6f72416c7068613a3a5f63617374566f74653a20766f7465722081526c185b1c9958591e481d9bdd1959609a1b602082015260400192915050565b6000612aaf6059836136c6565b7f476f7665726e6f72416c7068613a3a70726f706f73653a206f6e65206c69766581527f2070726f706f73616c207065722070726f706f7365722c20666f756e6420616e60208201527f20616c72656164792070656e64696e672070726f706f73616c00000000000000604082015260600192915050565b6000612b34604a836136c6565b7f476f7665726e6f72416c7068613a3a5f5f717565756553657454696d656c6f6381527f6b50656e64696e6741646d696e3a2073656e646572206d75737420626520676f6020820152693b1033bab0b93234b0b760b11b604082015260600192915050565b6000612ba66028836136c6565b7f476f7665726e6f72416c7068613a3a70726f706f73653a20746f6f206d616e7981526720616374696f6e7360c01b602082015260400192915050565b6000612bf06011836136c6565b706164646974696f6e206f766572666c6f7760781b815260200192915050565b6000612c1d604383610ab7565b7f454950373132446f6d61696e28737472696e67206e616d652c75696e7432353681527f20636861696e49642c6164647265737320766572696679696e67436f6e74726160208201526263742960e81b604082015260430192915050565b6000612c88602783610ab7565b7f42616c6c6f742875696e743235362070726f706f73616c49642c626f6f6c20738152667570706f72742960c81b602082015260270192915050565b6000612cd16044836136c6565b7f476f7665726e6f72416c7068613a3a70726f706f73653a2070726f706f73616c81527f2066756e6374696f6e20696e666f726d6174696f6e206172697479206d69736d6020820152630c2e8c6d60e31b604082015260600192915050565b6000612d3d602f836136c6565b7f476f7665726e6f72416c7068613a3a63616e63656c3a2070726f706f7365722081526e18589bdd99481d1a1c995cda1bdb19608a1b602082015260400192915050565b6000612d8e6044836136c6565b7f476f7665726e6f72416c7068613a3a5f71756575654f725265766572743a207081527f726f706f73616c20616374696f6e20616c7265616479207175657565642061746020820152632065746160e01b604082015260600192915050565b6000612dfa602c836136c6565b7f476f7665726e6f72416c7068613a3a70726f706f73653a206d7573742070726f81526b7669646520616374696f6e7360a01b602082015260400192915050565b6000612e48603f836136c6565b7f476f7665726e6f72416c7068613a3a70726f706f73653a2070726f706f73657281527f20766f7465732062656c6f772070726f706f73616c207468726573686f6c6400602082015260400192915050565b6000612ea7602f836136c6565b7f476f7665726e6f72416c7068613a3a63617374566f746542795369673a20696e81526e76616c6964207369676e617475726560881b602082015260400192915050565b6000612ef86058836136c6565b7f476f7665726e6f72416c7068613a3a70726f706f73653a206f6e65206c69766581527f2070726f706f73616c207065722070726f706f7365722c20666f756e6420616e60208201527f20616c7265616479206163746976652070726f706f73616c0000000000000000604082015260600192915050565b6000612f7d6036836136c6565b7f476f7665726e6f72416c7068613a3a63616e63656c3a2063616e6e6f742063618152751b98d95b08195e1958dd5d1959081c1c9bdc1bdcd85b60521b602082015260400192915050565b6000612fd5602a836136c6565b7f476f7665726e6f72416c7068613a3a5f63617374566f74653a20766f74696e67815269081a5cc818db1bdcd95960b21b602082015260400192915050565b60006130216015836136c6565b747375627472616374696f6e20756e646572666c6f7760581b815260200192915050565b60006130526036836136c6565b7f476f7665726e6f72416c7068613a3a5f5f61626469636174653a2073656e6465815275391036bab9ba1031329033b7bb1033bab0b93234b0b760511b602082015260400192915050565b805160608301906130ae8482612705565b5060208201516130c16020850182612705565b50604082015161106d60408501826130e6565b612580816136f5565b6125808161372f565b612580816136fb565b60006130fa8261293d565b91506131068285612717565b6020820191506131168284612717565b5060200192915050565b600061178982612c10565b600061178982612c7b565b602081016117898284612586565b604081016131528285612577565b611b42602083018461270e565b60a0810161316d8287612586565b61317a60208301866127fc565b818103604083015261318b816129cf565b9050818103606083015261319f8185612728565b90506114a1608083018461270e565b604081016131528285612586565b608081016131ca8287612586565b6131d7602083018661270e565b6131e46040830185612705565b6114a160608301846130dd565b60a081016131ff8288612586565b61320c602083018761270e565b818103604083015261321e8186612728565b905081810360608301526132328185612728565b9050613241608083018461270e565b9695505050505050565b60a081016132598288612586565b613266602083018761270e565b81810360408301526132788186612760565b905081810360608301526132328185612760565b6080808252810161329d818761258f565b905081810360208301526132b181866126b7565b905081810360408301526132c58185612656565b9050818103606083015261324181846125e8565b60208101611789828461270e565b608081016132f5828761270e565b613302602083018661270e565b61330f604083018561270e565b6114a16060830184612586565b6060810161332a828661270e565b613337602083018561270e565b6122a86040830184612705565b60808101613352828761270e565b61335f60208301866130d4565b61336c604083018561270e565b6114a1606083018461270e565b6020810161178982846127ea565b6020810161178982846127f3565b60208082528101611b428184612728565b6020808252810161178981612805565b6020808252810161178981612864565b60208082528101611789816128d0565b602080825281016117898161295b565b6020808252810161178981612a08565b6020808252810161178981612a53565b6020808252810161178981612aa2565b6020808252810161178981612b27565b6020808252810161178981612b99565b6020808252810161178981612be3565b6020808252810161178981612cc4565b6020808252810161178981612d30565b6020808252810161178981612d81565b6020808252810161178981612ded565b6020808252810161178981612e3b565b6020808252810161178981612e9a565b6020808252810161178981612eeb565b6020808252810161178981612f70565b6020808252810161178981612fc8565b6020808252810161178981613014565b6020808252810161178981613045565b60608101611789828461309d565b6101208101613513828c61270e565b613520602083018b612577565b8181036040830152613532818a61258f565b9050818103606083015261354681896126b7565b9050818103608083015261355a8188612656565b905081810360a083015261356e81876125e8565b905061357d60c083018661270e565b61358a60e083018561270e565b81810361010083015261359d8184612728565b9b9a5050505050505050505050565b61012081016135bb828c61270e565b6135c8602083018b612586565b6135d5604083018a61270e565b6135e2606083018961270e565b6135ef608083018861270e565b6135fc60a083018761270e565b61360960c083018661270e565b61361660e0830185612705565b613624610100830184612705565b9a9950505050505050505050565b60408101613152828561270e565b60405181810167ffffffffffffffff8111828210171561365f57600080fd5b604052919050565b600067ffffffffffffffff82111561367e57600080fd5b5060209081020190565b600067ffffffffffffffff82111561369f57600080fd5b506020601f91909101601f19160190565b60200190565b60009081526020902090565b5190565b90815260200190565b6000611789826136e9565b151590565b80610ab78161377c565b6001600160a01b031690565b60ff1690565b6001600160601b031690565b6000611789825b6000611789826136cf565b6000611789826136df565b600061178982610535565b6000611789826136fb565b82818337506000910152565b60005b83811015613761578181015183820152602001613749565b8381111561106d5750506000910152565b601f01601f191690565b60088110611ffc57fe5b61378f816136cf565b8114611ffc57600080fd5b61378f816136da565b61378f81610535565b61378f816136f5565b61378f816136fb56fea365627a7a723158208c8526aa47d79074911d32ec7c1432d66f000809164dc302b5a67677d735bb746c6578706572696d656e74616cf564736f6c63430005100040",
  "source": "pragma solidity ^0.5.16;\r\npragma experimental ABIEncoderV2;\r\n\r\ncontract GovernorAlpha {\r\n    /// @notice The name of this contract\r\n    string public constant name = \"LendHub Governor Alpha\";\r\n\r\n    /// @notice The number of votes in support of a proposal required in order for a quorum to be reached and for a vote to succeed\r\n    function quorumVotes() public pure returns (uint) { return 400000e18; } // 400,000 = 4% of Comp\r\n\r\n    /// @notice The number of votes required in order for a voter to become a proposer\r\n    function proposalThreshold() public pure returns (uint) { return 100000e18; } // 100,000 = 1% of Comp\r\n\r\n    /// @notice The maximum number of actions that can be included in a proposal\r\n    function proposalMaxOperations() public pure returns (uint) { return 10; } // 10 actions\r\n\r\n    /// @notice The delay before voting on a proposal may take place, once proposed\r\n    function votingDelay() public pure returns (uint) { return 1; } // 1 block\r\n\r\n    /// @notice The duration of voting on a proposal, in blocks\r\n    function votingPeriod() public pure returns (uint) { return 17280; } // ~3 days in blocks (assuming 15s blocks)\r\n\r\n    /// @notice The address of the LendHub Protocol Timelock\r\n    TimelockInterface public timelock;\r\n\r\n    /// @notice The address of the LendHub governance token\r\n    CompInterface public comp;\r\n\r\n    /// @notice The address of the Governor Guardian\r\n    address public guardian;\r\n\r\n    /// @notice The total number of proposals\r\n    uint public proposalCount;\r\n\r\n    struct Proposal {\r\n        /// @notice Unique id for looking up a proposal\r\n        uint id;\r\n\r\n        /// @notice Creator of the proposal\r\n        address proposer;\r\n\r\n        /// @notice The timestamp that the proposal will be available for execution, set once the vote succeeds\r\n        uint eta;\r\n\r\n        /// @notice the ordered list of target addresses for calls to be made\r\n        address[] targets;\r\n\r\n        /// @notice The ordered list of values (i.e. msg.value) to be passed to the calls to be made\r\n        uint[] values;\r\n\r\n        /// @notice The ordered list of function signatures to be called\r\n        string[] signatures;\r\n\r\n        /// @notice The ordered list of calldata to be passed to each call\r\n        bytes[] calldatas;\r\n\r\n        /// @notice The block at which voting begins: holders must delegate their votes prior to this block\r\n        uint startBlock;\r\n\r\n        /// @notice The block at which voting ends: votes must be cast prior to this block\r\n        uint endBlock;\r\n\r\n        /// @notice Current number of votes in favor of this proposal\r\n        uint forVotes;\r\n\r\n        /// @notice Current number of votes in opposition to this proposal\r\n        uint againstVotes;\r\n\r\n        /// @notice Flag marking whether the proposal has been canceled\r\n        bool canceled;\r\n\r\n        /// @notice Flag marking whether the proposal has been executed\r\n        bool executed;\r\n\r\n        /// @notice Receipts of ballots for the entire set of voters\r\n        mapping (address => Receipt) receipts;\r\n    }\r\n\r\n    /// @notice Ballot receipt record for a voter\r\n    struct Receipt {\r\n        /// @notice Whether or not a vote has been cast\r\n        bool hasVoted;\r\n\r\n        /// @notice Whether or not the voter supports the proposal\r\n        bool support;\r\n\r\n        /// @notice The number of votes the voter had, which were cast\r\n        uint96 votes;\r\n    }\r\n\r\n    /// @notice Possible states that a proposal may be in\r\n    enum ProposalState {\r\n        Pending,\r\n        Active,\r\n        Canceled,\r\n        Defeated,\r\n        Succeeded,\r\n        Queued,\r\n        Expired,\r\n        Executed\r\n    }\r\n\r\n    /// @notice The official record of all proposals ever proposed\r\n    mapping (uint => Proposal) public proposals;\r\n\r\n    /// @notice The latest proposal for each proposer\r\n    mapping (address => uint) public latestProposalIds;\r\n\r\n    /// @notice The EIP-712 typehash for the contract's domain\r\n    bytes32 public constant DOMAIN_TYPEHASH = keccak256(\"EIP712Domain(string name,uint256 chainId,address verifyingContract)\");\r\n\r\n    /// @notice The EIP-712 typehash for the ballot struct used by the contract\r\n    bytes32 public constant BALLOT_TYPEHASH = keccak256(\"Ballot(uint256 proposalId,bool support)\");\r\n\r\n    /// @notice An event emitted when a new proposal is created\r\n    event ProposalCreated(uint id, address proposer, address[] targets, uint[] values, string[] signatures, bytes[] calldatas, uint startBlock, uint endBlock, string description);\r\n\r\n    /// @notice An event emitted when a vote has been cast on a proposal\r\n    event VoteCast(address voter, uint proposalId, bool support, uint votes);\r\n\r\n    /// @notice An event emitted when a proposal has been canceled\r\n    event ProposalCanceled(uint id);\r\n\r\n    /// @notice An event emitted when a proposal has been queued in the Timelock\r\n    event ProposalQueued(uint id, uint eta);\r\n\r\n    /// @notice An event emitted when a proposal has been executed in the Timelock\r\n    event ProposalExecuted(uint id);\r\n\r\n    constructor(address timelock_, address comp_, address guardian_) public {\r\n        timelock = TimelockInterface(timelock_);\r\n        comp = CompInterface(comp_);\r\n        guardian = guardian_;\r\n    }\r\n\r\n    function propose(address[] memory targets, uint[] memory values, string[] memory signatures, bytes[] memory calldatas, string memory description) public returns (uint) {\r\n        require(comp.getPriorVotes(msg.sender, sub256(block.number, 1)) > proposalThreshold(), \"GovernorAlpha::propose: proposer votes below proposal threshold\");\r\n        require(targets.length == values.length && targets.length == signatures.length && targets.length == calldatas.length, \"GovernorAlpha::propose: proposal function information arity mismatch\");\r\n        require(targets.length != 0, \"GovernorAlpha::propose: must provide actions\");\r\n        require(targets.length <= proposalMaxOperations(), \"GovernorAlpha::propose: too many actions\");\r\n\r\n        uint latestProposalId = latestProposalIds[msg.sender];\r\n        if (latestProposalId != 0) {\r\n          ProposalState proposersLatestProposalState = state(latestProposalId);\r\n          require(proposersLatestProposalState != ProposalState.Active, \"GovernorAlpha::propose: one live proposal per proposer, found an already active proposal\");\r\n          require(proposersLatestProposalState != ProposalState.Pending, \"GovernorAlpha::propose: one live proposal per proposer, found an already pending proposal\");\r\n        }\r\n\r\n        uint startBlock = add256(block.number, votingDelay());\r\n        uint endBlock = add256(startBlock, votingPeriod());\r\n\r\n        proposalCount++;\r\n        Proposal memory newProposal = Proposal({\r\n            id: proposalCount,\r\n            proposer: msg.sender,\r\n            eta: 0,\r\n            targets: targets,\r\n            values: values,\r\n            signatures: signatures,\r\n            calldatas: calldatas,\r\n            startBlock: startBlock,\r\n            endBlock: endBlock,\r\n            forVotes: 0,\r\n            againstVotes: 0,\r\n            canceled: false,\r\n            executed: false\r\n        });\r\n\r\n        proposals[newProposal.id] = newProposal;\r\n        latestProposalIds[newProposal.proposer] = newProposal.id;\r\n\r\n        emit ProposalCreated(newProposal.id, msg.sender, targets, values, signatures, calldatas, startBlock, endBlock, description);\r\n        return newProposal.id;\r\n    }\r\n\r\n    function queue(uint proposalId) public {\r\n        require(state(proposalId) == ProposalState.Succeeded, \"GovernorAlpha::queue: proposal can only be queued if it is succeeded\");\r\n        Proposal storage proposal = proposals[proposalId];\r\n        uint eta = add256(block.timestamp, timelock.delay());\r\n        for (uint i = 0; i < proposal.targets.length; i++) {\r\n            _queueOrRevert(proposal.targets[i], proposal.values[i], proposal.signatures[i], proposal.calldatas[i], eta);\r\n        }\r\n        proposal.eta = eta;\r\n        emit ProposalQueued(proposalId, eta);\r\n    }\r\n\r\n    function _queueOrRevert(address target, uint value, string memory signature, bytes memory data, uint eta) internal {\r\n        require(!timelock.queuedTransactions(keccak256(abi.encode(target, value, signature, data, eta))), \"GovernorAlpha::_queueOrRevert: proposal action already queued at eta\");\r\n        timelock.queueTransaction(target, value, signature, data, eta);\r\n    }\r\n\r\n    function execute(uint proposalId) public payable {\r\n        require(state(proposalId) == ProposalState.Queued, \"GovernorAlpha::execute: proposal can only be executed if it is queued\");\r\n        Proposal storage proposal = proposals[proposalId];\r\n        proposal.executed = true;\r\n        for (uint i = 0; i < proposal.targets.length; i++) {\r\n            timelock.executeTransaction.value(proposal.values[i])(proposal.targets[i], proposal.values[i], proposal.signatures[i], proposal.calldatas[i], proposal.eta);\r\n        }\r\n        emit ProposalExecuted(proposalId);\r\n    }\r\n\r\n    function cancel(uint proposalId) public {\r\n        ProposalState state = state(proposalId);\r\n        require(state != ProposalState.Executed, \"GovernorAlpha::cancel: cannot cancel executed proposal\");\r\n\r\n        Proposal storage proposal = proposals[proposalId];\r\n        require(msg.sender == guardian || comp.getPriorVotes(proposal.proposer, sub256(block.number, 1)) < proposalThreshold(), \"GovernorAlpha::cancel: proposer above threshold\");\r\n\r\n        proposal.canceled = true;\r\n        for (uint i = 0; i < proposal.targets.length; i++) {\r\n            timelock.cancelTransaction(proposal.targets[i], proposal.values[i], proposal.signatures[i], proposal.calldatas[i], proposal.eta);\r\n        }\r\n\r\n        emit ProposalCanceled(proposalId);\r\n    }\r\n\r\n    function getActions(uint proposalId) public view returns (address[] memory targets, uint[] memory values, string[] memory signatures, bytes[] memory calldatas) {\r\n        Proposal storage p = proposals[proposalId];\r\n        return (p.targets, p.values, p.signatures, p.calldatas);\r\n    }\r\n\r\n    function getReceipt(uint proposalId, address voter) public view returns (Receipt memory) {\r\n        return proposals[proposalId].receipts[voter];\r\n    }\r\n\r\n    function state(uint proposalId) public view returns (ProposalState) {\r\n        require(proposalCount >= proposalId && proposalId > 0, \"GovernorAlpha::state: invalid proposal id\");\r\n        Proposal storage proposal = proposals[proposalId];\r\n        if (proposal.canceled) {\r\n            return ProposalState.Canceled;\r\n        } else if (block.number <= proposal.startBlock) {\r\n            return ProposalState.Pending;\r\n        } else if (block.number <= proposal.endBlock) {\r\n            return ProposalState.Active;\r\n        } else if (proposal.forVotes <= proposal.againstVotes || proposal.forVotes < quorumVotes()) {\r\n            return ProposalState.Defeated;\r\n        } else if (proposal.eta == 0) {\r\n            return ProposalState.Succeeded;\r\n        } else if (proposal.executed) {\r\n            return ProposalState.Executed;\r\n        } else if (block.timestamp >= add256(proposal.eta, timelock.GRACE_PERIOD())) {\r\n            return ProposalState.Expired;\r\n        } else {\r\n            return ProposalState.Queued;\r\n        }\r\n    }\r\n\r\n    function castVote(uint proposalId, bool support) public {\r\n        return _castVote(msg.sender, proposalId, support);\r\n    }\r\n\r\n    function castVoteBySig(uint proposalId, bool support, uint8 v, bytes32 r, bytes32 s) public {\r\n        bytes32 domainSeparator = keccak256(abi.encode(DOMAIN_TYPEHASH, keccak256(bytes(name)), getChainId(), address(this)));\r\n        bytes32 structHash = keccak256(abi.encode(BALLOT_TYPEHASH, proposalId, support));\r\n        bytes32 digest = keccak256(abi.encodePacked(\"\\x19\\x01\", domainSeparator, structHash));\r\n        address signatory = ecrecover(digest, v, r, s);\r\n        require(signatory != address(0), \"GovernorAlpha::castVoteBySig: invalid signature\");\r\n        return _castVote(signatory, proposalId, support);\r\n    }\r\n\r\n    function _castVote(address voter, uint proposalId, bool support) internal {\r\n        require(state(proposalId) == ProposalState.Active, \"GovernorAlpha::_castVote: voting is closed\");\r\n        Proposal storage proposal = proposals[proposalId];\r\n        Receipt storage receipt = proposal.receipts[voter];\r\n        require(receipt.hasVoted == false, \"GovernorAlpha::_castVote: voter already voted\");\r\n        uint96 votes = comp.getPriorVotes(voter, proposal.startBlock);\r\n\r\n        if (support) {\r\n            proposal.forVotes = add256(proposal.forVotes, votes);\r\n        } else {\r\n            proposal.againstVotes = add256(proposal.againstVotes, votes);\r\n        }\r\n\r\n        receipt.hasVoted = true;\r\n        receipt.support = support;\r\n        receipt.votes = votes;\r\n\r\n        emit VoteCast(voter, proposalId, support, votes);\r\n    }\r\n\r\n    function __acceptAdmin() public {\r\n        require(msg.sender == guardian, \"GovernorAlpha::__acceptAdmin: sender must be gov guardian\");\r\n        timelock.acceptAdmin();\r\n    }\r\n\r\n    function __abdicate() public {\r\n        require(msg.sender == guardian, \"GovernorAlpha::__abdicate: sender must be gov guardian\");\r\n        guardian = address(0);\r\n    }\r\n\r\n    function __queueSetTimelockPendingAdmin(address newPendingAdmin, uint eta) public {\r\n        require(msg.sender == guardian, \"GovernorAlpha::__queueSetTimelockPendingAdmin: sender must be gov guardian\");\r\n        timelock.queueTransaction(address(timelock), 0, \"setPendingAdmin(address)\", abi.encode(newPendingAdmin), eta);\r\n    }\r\n\r\n    function __executeSetTimelockPendingAdmin(address newPendingAdmin, uint eta) public {\r\n        require(msg.sender == guardian, \"GovernorAlpha::__executeSetTimelockPendingAdmin: sender must be gov guardian\");\r\n        timelock.executeTransaction(address(timelock), 0, \"setPendingAdmin(address)\", abi.encode(newPendingAdmin), eta);\r\n    }\r\n\r\n    function add256(uint256 a, uint256 b) internal pure returns (uint) {\r\n        uint c = a + b;\r\n        require(c >= a, \"addition overflow\");\r\n        return c;\r\n    }\r\n\r\n    function sub256(uint256 a, uint256 b) internal pure returns (uint) {\r\n        require(b <= a, \"subtraction underflow\");\r\n        return a - b;\r\n    }\r\n\r\n    function getChainId() internal pure returns (uint) {\r\n        uint chainId;\r\n        assembly { chainId := chainid() }\r\n        return chainId;\r\n    }\r\n}\r\n\r\ninterface TimelockInterface {\r\n    function delay() external view returns (uint);\r\n    function GRACE_PERIOD() external view returns (uint);\r\n    function acceptAdmin() external;\r\n    function queuedTransactions(bytes32 hash) external view returns (bool);\r\n    function queueTransaction(address target, uint value, string calldata signature, bytes calldata data, uint eta) external returns (bytes32);\r\n    function cancelTransaction(address target, uint value, string calldata signature, bytes calldata data, uint eta) external;\r\n    function executeTransaction(address target, uint value, string calldata signature, bytes calldata data, uint eta) external payable returns (bytes memory);\r\n}\r\n\r\ninterface CompInterface {\r\n    function getPriorVotes(address account, uint blockNumber) external view returns (uint96);\r\n}\r\n",
  "sourcePath": "D:/GolandProjects/lendhub/contracts/Governance/GovernorAlpha.sol",
  "compiler": {
    "name": "solc",
    "version": "0.5.16+commit.9c3226ce.Emscripten.clang"
  },
  "schemaVersion": "3.4.1",
  "updatedAt": "2021-05-14T07:30:31.612Z",
  "devdoc": {
    "methods": {}
  },
  "userdoc": {
    "methods": {
      "proposalMaxOperations()": {
        "notice": "The maximum number of actions that can be included in a proposal"
      },
      "proposalThreshold()": {
        "notice": "The number of votes required in order for a voter to become a proposer"
      },
      "quorumVotes()": {
        "notice": "The number of votes in support of a proposal required in order for a quorum to be reached and for a vote to succeed"
      },
      "votingDelay()": {
        "notice": "The delay before voting on a proposal may take place, once proposed"
      },
      "votingPeriod()": {
        "notice": "The duration of voting on a proposal, in blocks"
      }
    }
  }
}