{
  "contractName": "LendHubLensLHB",
  "abi": [
    {
      "constant": true,
      "inputs": [],
      "name": "compInitialIndex",
      "outputs": [
        {
          "internalType": "uint224",
          "name": "",
          "type": "uint224"
        }
      ],
      "payable": false,
      "stateMutability": "view",
      "type": "function"
    },
    {
      "constant": true,
      "inputs": [
        {
          "internalType": "contract CToken",
          "name": "cToken",
          "type": "address"
        }
      ],
      "name": "cTokenLHBMetadata",
      "outputs": [
        {
          "components": [
            {
              "internalType": "address",
              "name": "cToken",
              "type": "address"
            },
            {
              "internalType": "uint256",
              "name": "supplyLHBAPY",
              "type": "uint256"
            },
            {
              "internalType": "uint256",
              "name": "borrowLHBAPY",
              "type": "uint256"
            }
          ],
          "internalType": "struct LendHubLensLHB.CTokenLHBData",
          "name": "",
          "type": "tuple"
        }
      ],
      "payable": false,
      "stateMutability": "view",
      "type": "function"
    },
    {
      "constant": true,
      "inputs": [
        {
          "internalType": "contract CToken[]",
          "name": "cTokens",
          "type": "address[]"
        }
      ],
      "name": "calcLHBAPYs",
      "outputs": [
        {
          "components": [
            {
              "internalType": "address",
              "name": "cToken",
              "type": "address"
            },
            {
              "internalType": "uint256",
              "name": "supplyLHBAPY",
              "type": "uint256"
            },
            {
              "internalType": "uint256",
              "name": "borrowLHBAPY",
              "type": "uint256"
            }
          ],
          "internalType": "struct LendHubLensLHB.CTokenLHBData[]",
          "name": "",
          "type": "tuple[]"
        }
      ],
      "payable": false,
      "stateMutability": "view",
      "type": "function"
    },
    {
      "constant": true,
      "inputs": [
        {
          "internalType": "address",
          "name": "account",
          "type": "address"
        },
        {
          "internalType": "contract CToken",
          "name": "cToken",
          "type": "address"
        }
      ],
      "name": "calAccountAccrued",
      "outputs": [
        {
          "internalType": "uint256",
          "name": "",
          "type": "uint256"
        }
      ],
      "payable": false,
      "stateMutability": "view",
      "type": "function"
    },
    {
      "constant": true,
      "inputs": [
        {
          "internalType": "address",
          "name": "account",
          "type": "address"
        },
        {
          "internalType": "contract CToken[]",
          "name": "cTokens",
          "type": "address[]"
        }
      ],
      "name": "calcAccountAllAccrued",
      "outputs": [
        {
          "internalType": "uint256",
          "name": "",
          "type": "uint256"
        }
      ],
      "payable": false,
      "stateMutability": "view",
      "type": "function"
    }
  ],
  "bytecode": "0x608060405234801561001057600080fd5b506113f4806100206000396000f3fe608060405234801561001057600080fd5b50600436106100575760003560e01c80630ac4b55f1461005c578063a7f0e23114610085578063b2780ec31461009a578063dcc3cb2e146100ba578063f7ff5ab6146100cd575b600080fd5b61006f61006a366004610fdb565b6100ed565b60405161007c919061129d565b60405180910390f35b61008d610134565b60405161007c919061128f565b6100ad6100a8366004611092565b610147565b60405161007c9190611281565b61006f6100c836600461102d565b61066f565b6100e06100db36600461105d565b61068f565b60405161007c9190611251565b600080805b835181101561012a57600084828151811061010957fe5b6020026020010151905061011d868261066f565b90920191506001016100f2565b5090505b92915050565b6ec097ce7bc90715b34b9f100000000081565b61014f610eac565b6000826001600160a01b0316635fe3b5676040518163ffffffff1660e01b815260040160206040518083038186803b15801561018a57600080fd5b505afa15801561019e573d6000803e3d6000fd5b505050506040513d601f19601f820116820180604052506101c291908101906110b0565b90506000816001600160a01b0316631d7b33d7856040518263ffffffff1660e01b81526004016101f29190611228565b60206040518083038186803b15801561020a57600080fd5b505afa15801561021e573d6000803e3d6000fd5b505050506040513d601f19601f8201168201806040525061024291908101906110fe565b90506000826001600160a01b0316637dc0d1d06040518163ffffffff1660e01b815260040160206040518083038186803b15801561027f57600080fd5b505afa158015610293573d6000803e3d6000fd5b505050506040513d601f19601f820116820180604052506102b791908101906110b0565b90506000816001600160a01b0316635e9a523c856001600160a01b0316639d1b5a0a6040518163ffffffff1660e01b815260040160206040518083038186803b15801561030357600080fd5b505afa158015610317573d6000803e3d6000fd5b505050506040513d601f19601f8201168201806040525061033b9190810190610fb5565b6040518263ffffffff1660e01b81526004016103579190611228565b60206040518083038186803b15801561036f57600080fd5b505afa158015610383573d6000803e3d6000fd5b505050506040513d601f19601f820116820180604052506103a791908101906110fe565b90506000866001600160a01b031663182df0f56040518163ffffffff1660e01b815260040160206040518083038186803b1580156103e457600080fd5b505afa1580156103f8573d6000803e3d6000fd5b505050506040513d601f19601f8201168201806040525061041c91908101906110fe565b90506000836001600160a01b031663fc57d4df896040518263ffffffff1660e01b815260040161044c9190611262565b60206040518083038186803b15801561046457600080fd5b505afa158015610478573d6000803e3d6000fd5b505050506040513d601f19601f8201168201806040525061049c91908101906110fe565b82896001600160a01b03166318160ddd6040518163ffffffff1660e01b815260040160206040518083038186803b1580156104d657600080fd5b505afa1580156104ea573d6000803e3d6000fd5b505050506040513d601f19601f8201168201806040525061050e91908101906110fe565b0202905060008184876c84ae1a99626191c4f68000000002028161052e57fe5b0490506000856001600160a01b031663fc57d4df8b6040518263ffffffff1660e01b815260040161055f9190611262565b60206040518083038186803b15801561057757600080fd5b505afa15801561058b573d6000803e3d6000fd5b505050506040513d601f19601f820116820180604052506105af91908101906110fe565b8a6001600160a01b03166347bd37186040518163ffffffff1660e01b815260040160206040518083038186803b1580156105e857600080fd5b505afa1580156105fc573d6000803e3d6000fd5b505050506040513d601f19601f8201168201806040525061062091908101906110fe565b029050600081868965098f8406a00002028161063857fe5b04905060405180606001604052808c6001600160a01b03168152602001848152602001828152509950505050505050505050919050565b60008061067c848461072a565b016106878484610a3a565b019392505050565b60606000825190506060816040519080825280602002602001820160405280156106d357816020015b6106c0610eac565b8152602001906001900390816106b85790505b50905060005b828110156107225760008582815181106106ef57fe5b6020026020010151905061070281610147565b83838151811061070e57fe5b6020908102919091010152506001016106d9565b509392505050565b600080826001600160a01b0316635fe3b5676040518163ffffffff1660e01b815260040160206040518083038186803b15801561076657600080fd5b505afa15801561077a573d6000803e3d6000fd5b505050506040513d601f19601f8201168201806040525061079e91908101906110b0565b9050826000806107ac610ed6565b6040518060200160405280886001600160a01b031663aa5af0fd6040518163ffffffff1660e01b815260040160206040518083038186803b1580156107f057600080fd5b505afa158015610804573d6000803e3d6000fd5b505050506040513d601f19601f8201168201806040525061082891908101906110fe565b90529050826108b25760405163ca0af04360e01b81526001600160a01b0386169063ca0af0439061085f908a908c90600401611236565b60206040518083038186803b15801561087757600080fd5b505afa15801561088b573d6000803e3d6000fd5b505050506040513d601f19601f820116820180604052506108af91908101906110fe565b92505b60405163462bc02760e11b81526001600160a01b03861690638c57804e906108de908a90600401611228565b604080518083038186803b1580156108f557600080fd5b505afa158015610909573d6000803e3d6000fd5b505050506040513d601f19601f8201168201806040525061092d91908101906110ce565b509150610938610ed6565b5060408051602081019091526001600160e01b0383168152610958610ed6565b50604080516020810190915284815281519415610a2a57610977610ed6565b6109818383610cc1565b90506000610a0a886001600160a01b03166395dd91938e6040518263ffffffff1660e01b81526004016109b49190611228565b60206040518083038186803b1580156109cc57600080fd5b505afa1580156109e0573d6000803e3d6000fd5b505050506040513d601f19601f82011682018060405250610a0491908101906110fe565b86610cef565b90506000610a188284610d14565b9a5061012e9950505050505050505050565b5060009998505050505050505050565b600080826001600160a01b0316635fe3b5676040518163ffffffff1660e01b815260040160206040518083038186803b158015610a7657600080fd5b505afa158015610a8a573d6000803e3d6000fd5b505050506040513d601f19601f82011682018060405250610aae91908101906110b0565b90508260008060405163b21be7fd60e01b81526001600160a01b0385169063b21be7fd90610ae29089908b90600401611236565b60206040518083038186803b158015610afa57600080fd5b505afa158015610b0e573d6000803e3d6000fd5b505050506040513d601f19601f82011682018060405250610b3291908101906110fe565b9150604051636b79c38d60e01b81526001600160a01b03851690636b79c38d90610b60908990600401611228565b604080518083038186803b158015610b7757600080fd5b505afa158015610b8b573d6000803e3d6000fd5b505050506040513d601f19601f82011682018060405250610baf91908101906110ce565b509050610bba610ed6565b5060408051602081019091526001600160e01b0382168152610bda610ed6565b506040805160208101909152838152815193158015610bf95750815115155b15610c11576ec097ce7bc90715b34b9f100000000081525b610c19610ed6565b610c238383610cc1565b90506000866001600160a01b03166370a082318c6040518263ffffffff1660e01b8152600401610c539190611228565b60206040518083038186803b158015610c6b57600080fd5b505afa158015610c7f573d6000803e3d6000fd5b505050506040513d601f19601f82011682018060405250610ca391908101906110fe565b90506000610cb18284610d14565b9c9b505050505050505050505050565b610cc9610ed6565b6040518060200160405280610ce685600001518560000151610d43565b90529392505050565b6000610d0d610d0684670de0b6b3a7640000610d7d565b8351610dbf565b9392505050565b60006ec097ce7bc90715b34b9f1000000000610d34848460000151610d7d565b81610d3b57fe5b049392505050565b6000610d0d8383604051806040016040528060158152602001747375627472616374696f6e20756e646572666c6f7760581b815250610df2565b6000610d0d83836040518060400160405280601781526020017f6d756c7469706c69636174696f6e206f766572666c6f77000000000000000000815250610e27565b6000610d0d83836040518060400160405280600e81526020016d646976696465206279207a65726f60901b815250610e78565b60008184841115610e1f5760405162461bcd60e51b8152600401610e169190611270565b60405180910390fd5b505050900390565b6000831580610e34575082155b15610e4157506000610d0d565b83830283858281610e4e57fe5b04148390610e6f5760405162461bcd60e51b8152600401610e169190611270565b50949350505050565b60008183610e995760405162461bcd60e51b8152600401610e169190611270565b50828481610ea357fe5b04949350505050565b604051806060016040528060006001600160a01b0316815260200160008152602001600081525090565b6040518060200160405280600081525090565b803561012e81611376565b805161012e81611376565b600082601f830112610f1057600080fd5b8135610f23610f1e826112d2565b6112ab565b91508181835260208401935060208101905083856020840282011115610f4857600080fd5b60005b83811015610f745781610f5e8882610f7e565b8452506020928301929190910190600101610f4b565b5050505092915050565b803561012e8161138d565b805161012e8161138d565b805161012e81611396565b805161012e8161139f565b805161012e816113a8565b600060208284031215610fc757600080fd5b6000610fd38484610ef4565b949350505050565b60008060408385031215610fee57600080fd5b6000610ffa8585610ee9565b925050602083013567ffffffffffffffff81111561101757600080fd5b61102385828601610eff565b9150509250929050565b6000806040838503121561104057600080fd5b600061104c8585610ee9565b925050602061102385828601610f7e565b60006020828403121561106f57600080fd5b813567ffffffffffffffff81111561108657600080fd5b610fd384828501610eff565b6000602082840312156110a457600080fd5b6000610fd38484610f7e565b6000602082840312156110c257600080fd5b6000610fd38484610f89565b600080604083850312156110e157600080fd5b60006110ed8585610f94565b925050602061102385828601610faa565b60006020828403121561111057600080fd5b6000610fd38484610f9f565b600061112883836111d9565b505060600190565b61113981611306565b82525050565b600061114a826112f9565b61115481856112fd565b935061115f836112f3565b8060005b8381101561118d578151611177888261111c565b9750611182836112f3565b925050600101611163565b509495945050505050565b61113981611311565b60006111ac826112f9565b6111b681856112fd565b93506111c6818560208601611340565b6111cf8161136c565b9093019392505050565b805160608301906111ea8482611130565b5060208201516111fd602085018261121f565b506040820151611210604085018261121f565b50505050565b61113981611328565b61113981611334565b6020810161012e8284611130565b604081016112448285611130565b610d0d6020830184611130565b60208082528101610d0d818461113f565b6020810161012e8284611198565b60208082528101610d0d81846111a1565b6060810161012e82846111d9565b6020810161012e8284611216565b6020810161012e828461121f565b60405181810167ffffffffffffffff811182821017156112ca57600080fd5b604052919050565b600067ffffffffffffffff8211156112e957600080fd5b5060209081020190565b60200190565b5190565b90815260200190565b600061012e8261131c565b600061012e82611306565b6001600160a01b031690565b6001600160e01b031690565b90565b63ffffffff1690565b60005b8381101561135b578181015183820152602001611343565b838111156112105750506000910152565b601f01601f191690565b61137f81611306565b811461138a57600080fd5b50565b61137f81611311565b61137f81611328565b61137f81611334565b61137f8161133756fea365627a7a723158204736f01cbf23ba52e0dc8691bd29176d27dbb349bf29d3f1194d17eb5fddb2026c6578706572696d656e74616cf564736f6c63430005100040",
  "source": "pragma solidity ^0.5.16;\r\npragma experimental ABIEncoderV2;\r\n\r\nimport \"../LErc20.sol\";\r\nimport \"../CToken.sol\";\r\nimport \"../PriceOracle.sol\";\r\nimport \"../EIP20Interface.sol\";\r\nimport \"../Governance/LendHub.sol\";\r\nimport \"../SimplePriceOracle.sol\";\r\n\r\ninterface ComptrollerLensInterface {\r\n\r\n    function compSpeeds(address) external view returns (uint);\r\n\r\n    function compSupplyState(address) external view returns (uint224, uint32);\r\n\r\n    function compBorrowState(address) external view returns (uint224, uint32);\r\n\r\n    function compSupplierIndex(address, address) external view returns (uint);\r\n\r\n    function compBorrowerIndex(address, address) external view returns (uint);\r\n\r\n    function markets(address) external view returns (bool, uint);\r\n\r\n    function oracle() external view returns (PriceOracle);\r\n\r\n    function getAccountLiquidity(address) external view returns (uint, uint, uint);\r\n\r\n    function getAssetsIn(address) external view returns (CToken[] memory);\r\n\r\n    function claimComp(address) external;\r\n\r\n    function compAccrued(address) external view returns (uint);\r\n\r\n    function getCompAddress() external view returns (address);\r\n}\r\n\r\ncontract LendHubLensLHB is ExponentialNoError {\r\n    uint224 public constant compInitialIndex = 1e36;\r\n\r\n    struct CTokenLHBData {\r\n        address cToken;\r\n        uint supplyLHBAPY;\r\n        uint borrowLHBAPY;\r\n    }\r\n\r\n    struct CompMarketState {\r\n        /// @notice The market's last updated compBorrowIndex or compSupplyIndex\r\n        uint224 index;\r\n\r\n        /// @notice The block number the index was last updated at\r\n        uint32 block;\r\n    }\r\n\r\n    //    struct Double {\r\n    //        uint mantissa;\r\n    //    }\r\n\r\n    function cTokenLHBMetadata(CToken cToken) public view returns (CTokenLHBData memory) {\r\n        ComptrollerLensInterface comptroller = ComptrollerLensInterface(address(cToken.comptroller()));\r\n        uint speed = comptroller.compSpeeds(address(cToken));\r\n        SimplePriceOracle priceOracle = SimplePriceOracle(address(comptroller.oracle()));\r\n        uint lhbPrice = priceOracle.assetPrices(comptroller.getCompAddress());\r\n        // 24位小数\r\n        uint exchangeRateCurrent = cToken.exchangeRateStored();\r\n        uint totalPrice = cToken.totalSupply() * exchangeRateCurrent * priceOracle.getUnderlyingPrice(cToken);\r\n        uint supplyAPY = 1000000000000000000 * 1000000 * 10512000 * speed * lhbPrice / totalPrice;\r\n        uint totalBorrowPrice = cToken.totalBorrows() * priceOracle.getUnderlyingPrice(cToken);\r\n        uint borrowLHBAPY = 1000000 * 10512000 * speed * lhbPrice / totalBorrowPrice;\r\n\r\n        return CTokenLHBData({\r\n        cToken : address(cToken),\r\n        supplyLHBAPY : supplyAPY,\r\n        borrowLHBAPY : borrowLHBAPY\r\n        });\r\n    }\r\n\r\n    function calcLHBAPYs(CToken[] memory cTokens) public view returns (CTokenLHBData[] memory)  {\r\n        uint cTokenCount = cTokens.length;\r\n        CTokenLHBData[] memory res = new CTokenLHBData[](cTokenCount);\r\n\r\n        for (uint i = 0; i < cTokenCount; i++) {\r\n            CToken cToken = cTokens[i];\r\n            res[i] = cTokenLHBMetadata(cToken);\r\n        }\r\n        return res;\r\n    }\r\n\r\n    function getAccountBorrowAccrued(address account, CToken cToken) internal view returns (uint){\r\n        ComptrollerLensInterface comptroller = ComptrollerLensInterface(address(cToken.comptroller()));\r\n        CTokenInterface cTokenInterface = CTokenInterface(address(cToken));\r\n        uint compBorrowerIndex = 0;\r\n        uint224 borrowStateIndex;\r\n\r\n        Exp memory marketBorrowIndex = Exp({mantissa : cToken.borrowIndex()});\r\n        if (compBorrowerIndex == 0) {\r\n            compBorrowerIndex = comptroller.compBorrowerIndex(address(cToken), account);\r\n        }\r\n        (borrowStateIndex,) = comptroller.compBorrowState(address(cToken));\r\n        Double memory borrowIndex = Double({mantissa : borrowStateIndex});\r\n        Double memory borrowerIndex = Double({mantissa : compBorrowerIndex});\r\n        compBorrowerIndex = borrowIndex.mantissa;\r\n\r\n        if (borrowerIndex.mantissa > 0) {\r\n            Double memory deltaIndex = sub_(borrowIndex, borrowerIndex);\r\n            uint borrowerAmount = div_(cTokenInterface.borrowBalanceStored(account), marketBorrowIndex);\r\n            uint borrowerDelta = mul_(borrowerAmount, deltaIndex);\r\n            return borrowerDelta;\r\n        }\r\n        return 0;\r\n    }\r\n\r\n    function getAccountSupplyAccrued(address account, CToken cToken) internal view returns (uint){\r\n        ComptrollerLensInterface comptroller = ComptrollerLensInterface(address(cToken.comptroller()));\r\n        CTokenInterface cTokenInterface = CTokenInterface(address(cToken));\r\n        uint compSupplierIndex = 0;\r\n        uint224 supplyStateIndex;\r\n\r\n        if (compSupplierIndex == 0) {\r\n            compSupplierIndex = comptroller.compSupplierIndex(address(cToken), account);\r\n        }\r\n        (supplyStateIndex,) = comptroller.compSupplyState(address(cToken));\r\n        Double memory supplyIndex = Double({mantissa : supplyStateIndex});\r\n        Double memory supplierIndex = Double({mantissa : compSupplierIndex});\r\n        compSupplierIndex = supplyIndex.mantissa;\r\n\r\n        if (supplierIndex.mantissa == 0 && supplyIndex.mantissa > 0) {\r\n            supplierIndex.mantissa = compInitialIndex;\r\n        }\r\n\r\n        Double memory deltaIndex = sub_(supplyIndex, supplierIndex);\r\n        uint supplierTokens = cTokenInterface.balanceOf(account);\r\n        uint supplierDelta = mul_(supplierTokens, deltaIndex);\r\n        return supplierDelta;\r\n    }\r\n\r\n    function calAccountAccrued(address account, CToken cToken) public view returns (uint){\r\n        uint sum = 0;\r\n        sum = sum + getAccountBorrowAccrued(account, cToken);\r\n        sum = sum + getAccountSupplyAccrued(account, cToken);\r\n        return sum;\r\n    }\r\n\r\n    function calcAccountAllAccrued(address account, CToken[] memory cTokens) public view returns (uint){\r\n        uint res = 0;\r\n        for (uint i = 0; i < cTokens.length; i++) {\r\n            CToken cToken = cTokens[i];\r\n            res = res + calAccountAccrued(account, cToken);\r\n        }\r\n        return res;\r\n    }\r\n}\r\n",
  "sourcePath": "D:/GolandProjects/lendhub/contracts/Lens/LendHubLensLHB.sol",
  "compiler": {
    "name": "solc",
    "version": "0.5.16+commit.9c3226ce.Emscripten.clang"
  },
  "schemaVersion": "3.4.1",
  "updatedAt": "2021-05-18T06:16:51.540Z",
  "devdoc": {
    "methods": {}
  },
  "userdoc": {
    "methods": {}
  }
}